:040000001BEF01F001
:100008002E82FACF02F0FBCF03F0E9CF04F0EACF5B
:1000180005F0E1CF06F0E2CF07F0D9CF08F0DACF4C
:1000280009F0F3CF0AF0F4CF0BF0F6CF0CF0F7CFCE
:100038000DF0F8CF0EF0F5CF0FF09EA6DAD0C9CFAD
:1000480027F0C698C6BC02D0C6AE03D0C69CC69ED2
:10005800ACD0C7AAC7B401D0A6D0C7BAC7B4A7D076
:100068002650D8A481D027C026F09FD027C023F0DF
:1000780027C020F02850275CD8B095D0000E236EFA
:100088000FD027C023F02850275CD8B08CD0000EA2
:10009800236E89D027C020F02850275CD8B083D0A1
:1000A800000E206E80D02750010B2D6E2750060BB6
:1000B8002C6E79D027C001F0D890013201A002D06F
:1000C800218801D0219827C001F0D8900132D8901A
:1000D800013201A002D01E8866D01E9864D027B0D5
:1000E80002D0010E01D0000E2D6E27B203D0016A96
:1000F800012A01D0016A014621500118FD0B01189F
:10010800216E27B403D0016A012A01D0016A014691
:100118001E500118FD0B1BD02750010B296E27B26A
:1001280003D0016A012A01D0016A01460146215023
:100138000118FB0B0118216E27B403D0016A012AAC
:1001480001D0016A014601461E500118FB0B011837
:100158001E6E29D027C02CF026D027C02AF02B6A83
:1001680022D027C028F01FD02650010AD8B47ED745
:10017800030AD8B486D7010AD8B48CD7070AD8B4EA
:1001880092D7010AD8B496D7030AD8B4C5D7010ABA
:10019800D8B4A5D70F0AD8B4DDD7010AD8B4DDD7AB
:1001A800030AD8B4DED7000E266EC68821D0C7AAA7
:1001B800C7A41ED0D8902730E806D8B405D0D89068
:1001C8002730020AD8A403D022C0C9FF0ED0D89085
:1001D8002730030AD8A403D01FC0C9FF06D0D8907F
:1001E8002730040AD8B42DC0C9FFC688C7B0FED7C7
:1001F8009E960FC0F5FF0EC0F8FF0DC0F7FF0CC0AC
:10020800F6FF0BC0F4FF0AC0F3FF09C0DAFF08C00D
:10021800D9FF07C0E2FF06C0E1FF05C0EAFF04C03E
:10022800E9FF03C0FBFF02C0FAFF2E92110025EF81
:1002380004F0196E000E186E1950105CD8B099D0E1
:100248002850116E126A111E121E114A122A1950D4
:10025800136E146A115013261250142214BE08D0BB
:10026800145004E1C90E135CD8A002D0320E61D03C
:100278002850116E126A111E121E114A122A1950A4
:10028800136E146A115013261250142214BE08D08B
:10029800145004E1970E135CD8A002D0190E49D06F
:1002A8002850116E126A111E121E114A122A195074
:1002B800136E146A115013261250142214BE08D05B
:1002C800145004E1650E135CD8A002D0140E31D08E
:1002D8002850116E126A111E121E114A122A195044
:1002E800136E146A115013261250142214BE08D02B
:1002F800145004E14C0E135CD8A002D00A0E19D099
:100308002850116E126A111E121E114A122A195013
:10031800136E146A115013261250142214BE08D0FA
:10032800145004E1330E135CD8A002D0050E01D09E
:10033800010E186E1850116E126A1050136E146A5E
:10034800131E141E134A142A1950156E166A1350D8
:100358001526145016221150155C1650800A176E77
:100368001250800A1758D8B09FD01050000819248E
:100378009AD02850116E126A111E121E114A122AA2
:100388001950136E146A115013261250142214BEF9
:100398000AD0145004E1C90E135CD8A004D0105040
:1003A8000008192461D02850116E126A111E121EFD
:1003B800114A122A1950136E146A1150132612503A
:1003C800142214BE08D0145004E1970E135CD8A070
:1003D80002D0190E49D02850116E126A111E121E31
:1003E800114A122A1950136E146A1150132612500A
:1003F800142214BE08D0145004E1650E135CD8A072
:1004080002D0140E31D02850116E126A111E121E1D
:10041800114A122A1950136E146A115013261250D9
:10042800142214BE08D0145004E14C0E135CD8A05A
:1004380002D00A0E19D02850116E126A111E121E0F
:10044800114A122A1950136E146A115013261250A9
:10045800142214BE08D0145004E1330E135CD8A043
:1004680002D0050E01D0010E186E1850116E126AD6
:100478001950136E146A131E141E134A142A1050AE
:10048800156E166A13501526145016221150155C55
:100498001650800A176E1250800A1758D8B004D028
:1004A800195000081024186E185012002D50D8B496
:1004B80033D021A218D02250D65C000ED758D8A02D
:1004C80021B004D0218089888B820DD022501C6EE7
:1004D8001D6A1C50D65C1D50D758D8B021A003D037
:1004E800219089988B921F50D65C000ED758D8A0BF
:1004F8001EB004D01E80898A8B8016D01F501C6EB7
:100508001D6A1C50D65C1D50D758D8B01EA00CD000
:100518001E90899A8B9008D01EB002D021A004D0DA
:100528008998899A1E9021902A50245C2B5025582E
:10053800D8A007D0D0EC03F0000E256E000E246E74
:100548001200244A252A12001F50D8A440D01EA801
:1005580002D0010E01D0000E1A6E1EA602D0010EA6
:1005680001D0000E1A1AD8B432D01EA802D01E86A6
:1005780001D01E961EA602D08B8601D08B961EB681
:1005880003D01A6A1A2A01D01A6A1A461A468B50D8
:100598001A18FB0B1A188B6E1200000E1F6E120031
:1005A8001F50285CD8B002D01F061200000E1F6E24
:1005B80012001F50285CD8B007D028C010F01F5078
:1005C8001DEC01F01F5E1200000E1F6E12002C5071
:1005D800000AD8B4E2D7010AD8B4E2D7030AD8A4EB
:1005E8001200E7D72250D8A440D021A802D0010E8B
:1005F80001D0000E1A6E21A602D0010E01D0000E05
:100608001A1AD8B432D021A802D0218601D0219656
:1006180021A602D08B8801D08B9821B603D01A6A04
:100628001A2A01D01A6A1A3A1A468B501A18DF0B7E
:100638001A188B6E1200000E226E12002250285CCF
:10064800D8B002D022061200000E226E12002250EC
:10065800285CD8B007D028C010F022501DEC01F05B
:10066800225E1200000E226E12002C50000AD8B42E
:10067800E2D7010AD8B4E2D7030AD8A41200E7D710
:1006880028501F5CD8B007D02850205CD8A003D0D1
:1006980028C01FF030D01F50285CD8A02CD028507C
:1006A800205CD8B028D0000E1F6E25D020C01FF0C7
:1006B80012001F50205CD8B002D01F061200205034
:1006C8001F5CD8B012001F2A12001F50205CD8B03F
:1006D80007D020C010F01F501DEC01F01F5E120063
:1006E80020501F5CD8B0120020C010F01F501DEC25
:1006F80001F01F2612002C50000AD8B4D7D7010ADF
:10070800D8B4D7D7030AD8A41200DFD72850225C60
:10071800D8B007D02850235CD8A003D028C022F036
:1007280030D02250285CD8A02CD02850235CD8B0D8
:1007380028D0000E226E25D023C022F012002250AD
:10074800235CD8B002D0220612002350225CD8B015
:100758001200222A12002250235CD8B007D023C0EE
:1007680010F022501DEC01F0225E12002350225C92
:10077800D8B0120023C010F022501DEC01F0222640
:1007880012002C50000AD8B4D7D7010AD8B4D7D74A
:10079800030AD8A41200DFD72950D8B405D0F6EC44
:1007A80002F0A8EC02F0120021A802D0010E01D03C
:1007B800000E1B6E21A602D0010E01D0000E1B1ADE
:1007C800D8B403D0F6EC02F005D023502218D8A4F0
:1007D8008AEC03F01EA802D0010E01D0000E1B6E99
:1007E8001EA602D0010E01D0000E1B1AD8B403D0E9
:1007F800A8EC02F0120020501F18D8B4120044ECE4
:1008080003F01200D550F80B0309D56ED596D59A8A
:10081800D58CD58E9298929A8998899A219021940C
:10082800218221862188000E226E000E236E1E90E2
:100838001E941E821E861E88000E1F6E000E206EDD
:100848001200D40EF66E080EF76E000EF86E00EE6B
:100858002AF010EE04F00900F5CFEEFFE550E15064
:10086800FAE100EE1EF00C0EEE6AE806FDE12E90AD
:100878002E92000EF86E000157EF04F09388938CC7
:10088800F19E7888788CC78EC650F00B0609C66E24
:10089800C580460E6F6E460EC86E9E969D86F28E79
:1008A800F28CC68A1200D388D38AD38C939E9490F4
:1008B8009492949494969498949A000E8B6E42EC29
:1008C80004F006EC04F05AEC02F0FDD7E80302014C
:020000040020DA
:08000000FFFFFFFFFFFFFFFF00
:020000040030CA
:0E00000000281F1EFF0881FF03C003E003401D
:00000001FF
