:04000000CCEF01F050
:100008004982FACF2DF0FBCF2EF0E9CF2FF0EACFBF
:1000180030F0E1CF31F0E2CF32F0D9CF33F0DACFA0
:1000280034F0F3CF35F0F4CF36F0F6CF37F0F7CF22
:1000380038F0F8CF39F0F5CF3AF09EA68BD1C9CF7A
:1000480022F0C698C6BC02D0C6AE03D0C69CC69ED7
:1000580078D1C7AAC7B401D072D1C7BAC7B473D10F
:100068002150D8A44AD122C021F06BD1000E1E6EB7
:10007800000E1D6E1EBE08D01E5005E1040E1D5C4C
:10008800D8B05DD101D05BD11DC025F01EC026F0CF
:10009800000E286E070E276E5EEC0CF0050E252666
:1000A800000E2622010E2524D96E000E2620DA6EB7
:1000B80022C0DFFF2350225CD8B016D01DC025F027
:1000C8001EC026F0000E286E070E276E5EEC0CF0A0
:1000D800050E2526000E2622010E2524D96E000EB7
:1000E8002620DA6E000EDF6E1D4A1E2A1EBECCD7F1
:1000F8001E5001E1C3D723D122C006F02350225C51
:10010800D8B01DD1000E066E1AD122C00DF02350B2
:10011800225CD8B014D1000E0D6E11D122C014F09B
:100128002350225CD8B00BD1000E146E08D122C027
:100138001BF02350225CD8B002D1000E1B6EFFD0FA
:10014800000E1E6E000E1D6E1EBE08D01E5005E16C
:10015800040E1D5CD8B0F3D001D0F1D01DC02BF037
:10016800010E2B2622C02CF02B2A02D0D8902C323C
:100178002B2EFCD72CA012D01DC025F01EC026F0B7
:10018800000E286E070E276E5EEC0CF0010E25247B
:10019800D96E000E2620DA6EDF8811D01DC025F03A
:1001A8001EC026F0000E286E070E276E5EEC0CF0BF
:1001B800010E2524D96E000E2620DA6EDF981D4A1E
:1001C8001E2A1EBECBD71E5001E1C2D7B8D022507E
:1001D800010B486E000E1E6E000E1D6E1EBE08D06E
:1001E8001E5005E1040E1D5CD8B0A9D001D0A7D0DF
:1001F8001DC02BF0010E2B2622C02CF02B2A02D07A
:10020800D8902C322B2EFCD72CA012D01DC025F054
:100218001EC026F0000E286E070E276E5EEC0CF04E
:10022800010E2524D96E000E2620DA6EDF8211D049
:100238001DC025F01EC026F0000E286E070E276E82
:100248005EEC0CF0010E2524D96E000E2620DA6E25
:10025800DF921D4A1E2A1EBECBD71E5070E1C2D7A0
:100268002250010B246E000E1E6E000E1D6E1EBE67
:1002780006D01E5064E1040E1D5CD8B060D01DC0CD
:100288002BF0010E2B2622C02CF02B2A02D0D8905E
:100298002C322B2EFCD72CA012D01DC025F01EC04E
:1002A80026F0000E286E070E276E5EEC0CF0010E8D
:1002B8002524D96E000E2620DA6EDF8411D01DC0E9
:1002C80025F01EC026F0000E286E070E276E5EEC85
:1002D8000CF0010E2524D96E000E2620DA6EDF946C
:1002E8001D4A1E2AC4D722C047F029D022C045F093
:1002F800466A25D022C023F022D02150010AD8B462
:10030800B5D6030AD8B4F8D6010AD8B4FED6070A77
:10031800D8B404D7010AD8B40AD7020AD8B410D777
:100328000F0AD8B49DD7010AD8B451D7030AD8B454
:10033800DAD7010AD8B4DAD7070AD8B4DBD7000E5F
:10034800216EC68806D0C7AAC7A403D0C688C7B07E
:10035800FED79E963AC0F5FF39C0F8FF38C0F7FFC0
:1003680037C0F6FF36C0F4FF35C0F3FF34C0DAFFFC
:1003780033C0D9FF32C0E2FF31C0E1FF30C0EAFF2D
:100388002FC0E9FF2EC0FBFF2DC0FAFF49921100D4
:100398002EEF0CF0000E0001726F000E716F00015D
:1003A80072BF0AD00001725106E1040E0001715DAE
:1003B800D8B0ECD201D0EAD24850D8B4A1D271C09A
:1003C8003BF072C03CF0000E3E6E070E3D6E4BECEB
:1003D8000CF0010E3B24D96E000E3C20DA6EDFA231
:1003E8008FD271C03BF072C03CF0000E3E6E070E1B
:1003F8003D6E4BEC0CF0010E3B24D96E000E3C20F8
:10040800DA6EDFAAC5D171C03BF072C03CF0000EB5
:100418003E6E070E3D6E4BEC0CF0040E3B26000EB4
:100428003C22010E3B24D96E000E3C20DA6EDF50D0
:1004380000016F6F00016F51D65C000ED758D8B01D
:1004480050D071C03BF072C03CF0000E3E6E070EFB
:100458003D6E4BEC0CF0010E3B24D96E000E3C2097
:10046800DA6EDFB03ED071C03BF072C03CF0000ED7
:100478003E6E070E3D6E4BEC0CF0060E3B26000E52
:100488003C22010E3B24D96E000E3C20DA6E130E7E
:10049800DF6027D071C03BF072C03CF0000E3E6EAA
:1004A800070E3D6E4BEC0CF0060E3B26000E3C2270
:1004B800010E3B24D96E000E3C20DA6EDF2A71C093
:1004C8003BF072C03CF0000E3E6E070E3D6E4BECEA
:1004D8000CF0010E3B24D96E000E3C20DA6EDF8052
:1004E8004BD271C03BF072C03CF0000E3E6E070E5E
:1004F8003D6E4BEC0CF0040E3B26000E3C22010E28
:100508003B24D96E000E3C20DA6EDF5000016F6F7D
:1005180000016F51D65C000ED758D8B055D071C0C5
:100528003BF072C03CF0000E3E6E070E3D6E4BEC89
:100538000CF0010E3B24D96E000E3C20DA6EDFB0C1
:1005480043D071C03BF072C03CF0000E3E6E070E07
:100558003D6E4BEC0CF0060E3B26000E3C22010EC5
:100568003B24D96E000E3C20DA6E140EDE18D8A497
:100578002BD071C03BF072C03CF0000E3E6E070EEF
:100588003D6E4BEC0CF0010E3B24D96E000E3C2066
:10059800DA6EDF80010E416E71C03BF072C03CF034
:1005A800000E3E6E070E3D6E4BEC0CF0010E3B2626
:1005B800000E3C22010E3B24D96E000E3C20DA6E60
:1005C800DF50BEEC0BF0D8D171C03BF072C03CF0EC
:1005D800000E3E6E070E3D6E4BEC0CF0040E3B26F3
:1005E800000E3C22010E3B24D96E000E3C20DA6E30
:1005F800DF5000016F6F706B00016F51D65C000116
:100608007051D758D8A03BD071C03BF072C03CF0B5
:10061800000E3E6E070E3D6E4BEC0CF0010E3B24B7
:10062800D96E000E3C20DA6EDFA029D071C03BF0F5
:1006380072C03CF0000E3E6E070E3D6E4BEC0CF0A7
:10064800060E3B26000E3C22010E3B24D96E000EFE
:100658003C20DA6E130EDF6012D071C03BF072C01E
:100668003CF0000E3E6E070E3D6E4BEC0CF0010E9A
:100678003B24D96E000E3C20DA6EDF907DD171C02C
:100688003BF072C03CF0000E3E6E070E3D6E4BEC28
:100698000CF0040E3B26000E3C22010E3B24D96EC2
:1006A800000E3C20DA6EDF5000016F6F00016F51C1
:1006B800D65C000ED758D8B05FD171C03BF072C07D
:1006C8003CF0000E3E6E070E3D6E4BEC0CF0010E3A
:1006D8003B24D96E000E3C20DA6EDFB04DD171C0DC
:1006E8003BF072C03CF0000E3E6E070E3D6E4BECC8
:1006F8000CF0060E3B26000E3C22010E3B24D96E60
:10070800000E3C20DA6E140EDE18D8A435D171C064
:100718003BF072C03CF0000E3E6E070E3D6E4BEC97
:100728000CF0010E3B24D96E000E3C20DA6EDF90EF
:1007380071C03BF072C03CF0000E3E6E070E3D6E7D
:100748004BEC0CF0060E3B26000E3C22010E3B241F
:10075800D96E000E3C20DA6E000EDF6E000E416E80
:1007680071C03BF072C03CF0000E3E6E070E3D6E4D
:100778004BEC0CF0010E3B26000E3C22010E3B24F4
:10078800D96E000E3C20DA6EDF50BEEC0BF0F4D0D0
:1007980071C03BF072C03CF0000E3E6E070E3D6E1D
:1007A8004BEC0CF0040E3B26000E3C22010E3B24C1
:1007B800D96E000E3C20DA6EDF5000016F6F000129
:1007C8006F51D65C000ED758D8B03DD071C03BF001
:1007D80072C03CF0000E3E6E070E3D6E4BEC0CF006
:1007E800010E3B24D96E000E3C20DA6EDFB02BD010
:1007F80071C03BF072C03CF0000E3E6E070E3D6EBD
:100808004BEC0CF0010E3B24D96E000E3C20DA6E46
:10081800DF80010E416E71C03BF072C03CF0000EEB
:100828003E6E070E3D6E4BEC0CF0010E3B26000EA3
:100838003C22010E3B24D96E000E3C20DA6EDF50BC
:10084800BEEC0BF099D071C03BF072C03CF0000ECA
:100858003E6E070E3D6E4BEC0CF0040E3B26000E70
:100868003C22010E3B24D96E000E3C20DA6EDF508C
:1008780000016F6F706B00016F51D65C0001705101
:10088800D758D8A079D071C03BF072C03CF0000EA8
:100898003E6E070E3D6E4BEC0CF0010E3B24D96EFC
:1008A800000E3C20DA6EDFA067D071C03BF072C04A
:1008B8003CF0000E3E6E070E3D6E4BEC0CF0010E48
:1008C8003B24D96E000E3C20DA6EDF90000E416E9C
:1008D80071C03BF072C03CF0000E3E6E070E3D6EDC
:1008E8004BEC0CF0010E3B26000E3C22010E3B2483
:1008F800D96E000E3C20DA6EDF50BEEC0BF03CD017
:1009080071C03BF072C03CF0000E3E6E070E3D6EAB
:100918004BEC0CF0010E3B24D96E000E3C20DA6E35
:10092800DFA02AD071C03BF072C03CF0000E3E6ED2
:10093800070E3D6E4BEC0CF0010E3B24D96E000EF9
:100948003C20DA6EDF90000E416E71C03BF072C041
:100958003CF0000E3E6E070E3D6E4BEC0CF0010EA7
:100968003B26000E3C22010E3B24D96E000E3C2093
:10097800DA6EDF50BEEC0BF00001714B722B0001F8
:1009880072BF1AD50001725101E10FD545501F5CA5
:1009980046502058D8A007D01CEC0BF0000E206E53
:1009A800000E1F6E12001F4A202A120067C03BF07B
:1009B80068C03CF0000E3E6E070E3D6E4BEC0CF02E
:1009C800040E3B26000E3C22010E3B24D96E000E7D
:1009D8003C20DA6E2350DE5CD8B02FD067C03BF0E5
:1009E80068C03CF0000E3E6E070E3D6E4BEC0CF0FE
:1009F800050E3B26000E3C22010E3B24D96E000E4C
:100A08003C20DA6E2350DE5CD8A017D067C03BF0DC
:100A180068C03CF0000E3E6E070E3D6E4BEC0CF0CD
:100A2800040E3B26000E3C22010E3B24D96E000E1C
:100A38003C20DA6E23C0DFFFDCD167C03BF068C022
:100A48003CF0000E3E6E070E3D6E4BEC0CF0040EB3
:100A58003B26000E3C22010E3B24D96E000E3C20A2
:100A6800DA6EDE50235CD8A0C4D167C03BF068C002
:100A78003CF0000E3E6E070E3D6E4BEC0CF0050E82
:100A88003B26000E3C22010E3B24D96E000E3C2072
:100A9800DA6E2350DE5CD8B0ACD167C03BF068C0DA
:100AA8003CF0000E3E6E070E3D6E4BEC0CF0040E53
:100AB8003B26000E3C22010E3B24D96E000E3C2042
:100AC800DA6E000EDF6E95D167C03BF068C03CF06F
:100AD800000E3E6E070E3D6E4BEC0CF0050E3B26ED
:100AE800000E3C22010E3B24D96E000E3C20DA6E2B
:100AF80067C03BF068C03CF0000E3E6E070E3D6ECE
:100B08004BEC0CF0040E3B26000E3C22010E3B245D
:100B1800E16E000E3C20E26EDFCFE7FF120067C0F7
:100B28003BF068C03CF0000E3E6E070E3D6E4BEC8D
:100B38000CF0040E3B26000E3C22010E3B24D96E1D
:100B4800000E3C20DA6E67C03BF068C03CF0000E37
:100B58003E6E070E3D6E4BEC0CF0050E3B26000E6C
:100B68003C22010E3B24E16E000E3C20E26EDE507A
:100B7800E65CD8B016D067C03BF068C03CF0000E09
:100B88003E6E070E3D6E4BEC0CF0040E3B26000E3D
:100B98003C22010E3B24D96E000E3C20DA6EDF06A3
:100BA800120067C03BF068C03CF0000E3E6E070EB6
:100BB8003D6E4BEC0CF0050E3B26000E3C22010E60
:100BC8003B24D96E000E3C20DA6E67C03BF068C04B
:100BD8003CF0000E3E6E070E3D6E4BEC0CF0040E22
:100BE8003B26000E3C22010E3B24E16E000E3C2009
:100BF800E26EDE50E65CD8B0120067C03BF068C019
:100C08003CF0000E3E6E070E3D6E4BEC0CF0040EF1
:100C18003B26000E3C22010E3B24D96E000E3C20E0
:100C2800DA6EDF2A120067C03BF068C03CF0000EA5
:100C38003E6E070E3D6E4BEC0CF0040E3B26000E8C
:100C48003C22010E3B24D96E000E3C20DA6E67C0B0
:100C58003BF068C03CF0000E3E6E070E3D6E4BEC5C
:100C68000CF0050E3B26000E3C22010E3B24E16EE3
:100C7800000E3C20E26EDE50E65CD8B047D067C07C
:100C88003BF068C03CF0000E3E6E070E3D6E4BEC2C
:100C98000CF0050E3B26000E3C22010E3B24D96EBB
:100CA800000E3C20DA6EDF50416E67C03BF068C032
:100CB8003CF0000E3E6E070E3D6E4BEC0CF0040E41
:100CC8003B26000E3C22010E3B24D96E000E3C2030
:100CD800DA6EDF5008EC07F00001696F67C03BF07F
:100CE80068C03CF0000E3E6E070E3D6E4BEC0CF0FB
:100CF800040E3B26000E3C22010E3B24D96E000E4A
:100D08003C20DA6E00016951DF5E120067C03BF0DB
:100D180068C03CF0000E3E6E070E3D6E4BEC0CF0CA
:100D2800050E3B26000E3C22010E3B24D96E000E18
:100D38003C20DA6E67C03BF068C03CF0000E3E6EA7
:100D4800070E3D6E4BEC0CF0040E3B26000E3C22C9
:100D5800010E3B24E16E000E3C20E26EDE50E65CA4
:100D6800D8B0120067C03BF068C03CF0000E3E6E81
:100D7800070E3D6E4BEC0CF0050E3B26000E3C2298
:100D8800010E3B24D96E000E3C20DA6EDF50416E16
:100D980067C03BF068C03CF0000E3E6E070E3D6E2B
:100DA8004BEC0CF0040E3B26000E3C22010E3B24BB
:100DB800D96E000E3C20DA6EDF5008EC07F0000117
:100DC800696F67C03BF068C03CF0000E3E6E070ECE
:100DD8003D6E4BEC0CF0040E3B26000E3C22010E3F
:100DE8003B24D96E000E3C20DA6E00016951DF26E3
:100DF80012004750000AD8B467D6010AD8B48FD673
:100E0800030AD8A412000FD7436E000E426E435057
:100E1800415CD8B0D9D023500001606F616B0001EC
:100E2800601F611F604B612B43500001626F636B51
:100E38000001605100016227000161510001632334
:100E4800000163BF0AD00001635105E1C90E00012A
:100E5800625DD8A002D0320E89D023500001606FA5
:100E6800616B0001601F611F604B612B43500001E3
:100E7800626F636B000160510001622700016151DC
:100E880000016323000163BF0AD00001635105E13B
:100E9800970E0001625DD8A002D0190E67D02350CA
:100EA8000001606F616B0001601F611F604B612B67
:100EB80043500001626F636B0001605100016227BB
:100EC8000001615100016323000163BF0AD00001E2
:100ED800635105E1650E0001625DD8A002D0140ED1
:100EE80045D023500001606F616B0001601F611FD6
:100EF800604B612B43500001626F636B00016051CE
:100F0800000162270001615100016323000163BFF2
:100F18000AD00001635105E14C0E0001625DD8A0C2
:100F280002D00A0E23D023500001606F616B0001CC
:100F3800601F611F604B612B43500001626F636B40
:100F48000001605100016227000161510001632323
:100F5800000163BF0AD00001635105E1330E0001AF
:100F6800625DD8A002D0050E01D0010E426E42503B
:100F78000001606F616B41500001626F636B00019B
:100F8800621F631F624B632B43500001646F656BE4
:100F980000016251000164270001635100016523CB
:100FA800000160510001645D00016551800A000183
:100FB800666F00016151800A00016659D8B0DFD020
:100FC800415000084324DAD023500001606F616B60
:100FD8000001601F611F604B612B43500001626F6D
:100FE800636B00016051000162270001615100013B
:100FF8006323000163BF0CD00001635105E1C90EF2
:101008000001625DD8A004D041500008432489D073
:1010180023500001606F616B0001601F611F604B0E
:10102800612B43500001626F636B00016051000146
:1010380062270001615100016323000163BF0AD0E8
:101048000001635105E1970E0001625DD8A002D04E
:10105800190E67D023500001606F616B0001601F9B
:10106800611F604B612B43500001626F636B00018D
:1010780060510001622700016151000163230001F2
:1010880063BF0AD00001635105E1650E0001625D8E
:10109800D8A002D0140E45D023500001606F616BB8
:1010A8000001601F611F604B612B43500001626F9C
:1010B800636B00016051000162270001615100016A
:1010C8006323000163BF0AD00001635105E14C0EA0
:1010D8000001625DD8A002D00A0E23D0235000017F
:1010E800606F616B0001601F611F604B612B435093
:1010F8000001626F636B000160510001622700010B
:10110800615100016323000163BF0AD000016351EC
:1011180005E1330E0001625DD8A002D0050E01D0B2
:10112800010E426E42500001606F616B4350000136
:10113800626F636B0001621F631F624B632B415038
:101148000001646F656B00016251000164270001B2
:10115800635100016523000160510001645D0001D5
:101168006551800A0001666F00016151800A000123
:101178006659D8B004D0435000084124426E42500A
:10118800120067C03BF068C03CF0000E3E6E070ED0
:101198003D6E4BEC0CF0040E3B26000E3C22010E7B
:1011A8003B24D96E000E3C20DA6EDF50D8A46DD1F6
:1011B80067C03BF068C03CF0000E3E6E070E3D6E07
:1011C8004BEC0CF0010E3B24D96E000E3C20DA6E7D
:1011D800DFA802D0010E01D0000E446E67C03BF0BC
:1011E80068C03CF0000E3E6E070E3D6E4BEC0CF0F6
:1011F800010E3B24D96E000E3C20DA6EDFA602D029
:10120800010E01D0000E441AD8B43FD167C03BF09C
:1012180068C03CF0000E3E6E070E3D6E4BEC0CF0C5
:10122800040E3B26000E3C22010E3B24D96E000E14
:101238003C20DA6E67C03BF068C03CF0000E3E6EA2
:10124800070E3D6E4BEC0CF0010E3B24E16E000ED8
:101258003C20E26EE7A802D0010E01D0000EDF6E3E
:1012680067C03BF068C03CF0000E3E6E070E3D6E56
:101278004BEC0CF0010E3B24D96E000E3C20DA6ECC
:10128800000EDFB6010E416E67C03BF068C03CF04F
:10129800000E3E6E070E3D6E4BEC0CF0020E3B2628
:1012A800000E3C22010E3B24D96E000E3C20DA6E63
:1012B800DF50BEEC0BF067C03BF068C03CF0000E9E
:1012C8003E6E070E3D6E4BEC0CF0010E3B24D96EC2
:1012D800000E3C20DA6EDFB602D0010E01D0000EFF
:1012E800416E67C03BF068C03CF0000E3E6E070ED2
:1012F8003D6E4BEC0CF0030E3B26000E3C22010E1B
:101308003B24D96E000E3C20DA6EDF50BEEC0BF0A9
:10131800120067C03BF068C03CF0000E3E6E070E3E
:101328003D6E4BEC0CF0040E3B26000E3C22010EE9
:101338003B24D96E000E3C20DA6E000EDF6E1200E0
:1013480067C03BF068C03CF0000E3E6E070E3D6E75
:101358004BEC0CF0040E3B26000E3C22010E3B2405
:10136800D96E000E3C20DA6EDE50235CD8B016D061
:1013780067C03BF068C03CF0000E3E6E070E3D6E45
:101388004BEC0CF0040E3B26000E3C22010E3B24D5
:10139800D96E000E3C20DA6EDF06120067C03BF003
:1013A80068C03CF0000E3E6E070E3D6E4BEC0CF034
:1013B800040E3B26000E3C22010E3B24D96E000E83
:1013C8003C20DA6E000EDF6E120067C03BF068C08A
:1013D8003CF0000E3E6E070E3D6E4BEC0CF0040E1A
:1013E8003B26000E3C22010E3B24D96E000E3C2009
:1013F800DA6EDE50235CD8B031D023C041F067C02C
:101408003BF068C03CF0000E3E6E070E3D6E4BECA4
:101418000CF0040E3B26000E3C22010E3B24D96E34
:10142800000E3C20DA6EDF5008EC07F0446E67C00F
:101438003BF068C03CF0000E3E6E070E3D6E4BEC74
:101448000CF0040E3B26000E3C22010E3B24D96E04
:10145800000E3C20DA6E4450DF5E120067C03BF09D
:1014680068C03CF0000E3E6E070E3D6E4BEC0CF073
:10147800040E3B26000E3C22010E3B24D96E000EC2
:101488003C20DA6E000EDF6E12004750000AD8B416
:1014980040D7010AD8B454D7030AD8A4120095D764
:1014A800D550F80B0309D56ED596D59AD58CD58E1F
:1014B800000E426E000E416E42BE08D0425005E159
:1014C800040E415CD8B09BD001D099D041C03BF00C
:1014D80042C03CF0000E3E6E070E3D6E4BEC0CF029
:1014E800010E3B24D96E000E3C20DA6EDF9041C01D
:1014F8003BF042C03CF0000E3E6E070E3D6E4BECDA
:101508000CF0010E3B24D96E000E3C20DA6EDF94FD
:1015180041C03BF042C03CF0000E3E6E070E3D6EEF
:101528004BEC0CF0010E3B24D96E000E3C20DA6E19
:10153800DF8241C03BF042C03CF0000E3E6E070E19
:101548003D6E4BEC0CF0010E3B24D96E000E3C2096
:10155800DA6EDF8641C03BF042C03CF0000E3E6EC2
:10156800070E3D6E4BEC0CF0010E3B24D96E000EBD
:101578003C20DA6EDF8841C03BF042C03CF0000EF0
:101588003E6E070E3D6E4BEC0CF0040E3B26000E33
:101598003C22010E3B24D96E000E3C20DA6E000E70
:1015A800DF6E41C03BF042C03CF0000E3E6E070EBD
:1015B8003D6E4BEC0CF0050E3B26000E3C22010E56
:1015C8003B24D96E000E3C20DA6E000EDF6E41C05F
:1015D8003BF042C03CF0000E3E6E070E3D6E4BECF9
:1015E8000CF0010E3B24D96E000E3C20DA6EDF9A17
:1015F800414A422A42BE6AD7425001E161D7000EF1
:10160800026E010E036E020E046E030E096E040EC6
:101618000A6E050E0B6E060E106E070E116E090E81
:10162800126E0A0E176E0B0E186E080E196E120047
:10163800000E00016E6F000E6D6F00016EBF0AD0C4
:1016480000016E5106E1040E00016D5DD8B0120074
:1016580001D012002450D8A412D06DC03BF06EC047
:101668003CF0000E3E6E070E3D6E4BEC0CF0010E8A
:101678003B24D96E000E3C20DA6EDFA407D06DC083
:1016880067F06EC068F0C5EC08F069D06DC03BF03B
:101698006EC03CF0000E3E6E070E3D6E4BEC0CF03B
:1016A800010E3B24D96E000E3C20DA6EDFA802D072
:1016B800010E01D0000E00016B6F6DC03BF06EC0D3
:1016C8003CF0000E3E6E070E3D6E4BEC0CF0010E2A
:1016D8003B24D96E000E3C20DA6EDFA602D0010E44
:1016E80001D0000E00016B1BD8B407D06DC067F0A5
:1016F8006EC068F0C5EC08F032D06DC03BF06EC02B
:101708003CF0000E3E6E070E3D6E4BEC0CF0050EE5
:101718003B26000E3C22010E3B24D96E000E3C20D5
:10172800DA6E6DC03BF06EC03CF0000E3E6E070EE8
:101738003D6E4BEC0CF0040E3B26000E3C22010ED5
:101748003B24E16E000E3C20E26EDE50E618D8B471
:1017580006D06DC067F06EC068F0DAEC04F00001E6
:101768006D4B6E2B00016EBF75D700016E5101E104
:101778006AD71200426E48D041B002D08B9001D097
:101788008B80120041B002D08B9201D08B82120064
:1017980041B002D08B9401D08B84120041B002D0AA
:1017A8008B9601D08B86120041B002D08B9801D065
:1017B8008B88120041B002D08B9A01D08B8A12001C
:1017C80041B002D08B9C01D08B8C120041B002D06A
:1017D8008B9E01D08B8E120041B002D08A9A01D024
:1017E8008A8A120041B002D08A9E01D08A8E1200E5
:1017F80041B002D0899801D08988120041B002D046
:10180800899A01D0898A12004250000AD8B4B4D704
:10181800010AD8B4B7D7030AD8B4BAD7010AD8B4DA
:10182800BDD7070AD8B4C0D7010AD8B4C3D7030AAA
:10183800D8B4C6D7010AD8B4C9D70F0AD8B4CCD7F8
:10184800010AD8B4CFD7030AD8B4D2D7010AD8A48A
:101858001200D4D72A0EF66E190EF76E000EF86E27
:1018680000EE45F010EE04F00900F5CFEEFFE5506C
:10187800E150FAE100EE01F0240EEE6AE806FDE11F
:1018880049904992000EF86E000182EF0CF03B502F
:101898003D02F3CF3FF0F4CF40F03B503E02F3500F
:1018A80040263C503D02F35040263FC03BF040C02C
:1018B8003CF0120025502702F3CF29F0F4CF2AF08C
:1018C80025502802F3502A2626502702F3502A26AC
:1018D80029C025F02AC026F01200F19E7888788C5D
:1018E800C78EC650F00B0609C66EC580460EC86E78
:1018F8009E969D86F28EF28CC68A1200D388D38A71
:10190800D38C8EEC0CF071EC0CF054EC0AF0CEECAD
:1019180001F0FDD7000E926E500E936E000E946E7D
:061928001200E8030201B9
:020000040020DA
:08000000FFFFFFFFFFFFFFFF00
:020000040030CA
:0E00000000281F1EFF0881FF03C003E003401D
:00000001FF
