:04000000D1EF01F04B
:100008004982FACF2EF0FBCF2FF0E9CF30F0EACFBC
:1000180031F0E1CF32F0E2CF33F0D9CF34F0DACF9C
:1000280035F0F3CF36F0F4CF37F0F6CF38F0F7CF1E
:1000380039F0F8CF3AF0F5CF3BF09EA690D1C9CF72
:1000480022F0C698C6BC02D0C6AE03D0C69CC69ED7
:100058007DD1C7AAC7B401D077D1C7BAC7B478D100
:100068002150D8A44FD122C021F070D1000E1E6EAD
:10007800000E1D6E1EBE08D01E5005E1040E1D5C4C
:10008800D8B062D101D060D12350225CD8B017D04B
:100098001DC026F01EC027F0000E296E070E286E20
:1000A800C2EC0CF0050E2626000E2722010E26248F
:1000B800D96E000E2720DA6E000EDF6E16D01DC036
:1000C80026F01EC027F0000E296E070E286EC2EC1F
:1000D8000CF0050E2626000E2722010E2624D96EC6
:1000E800000E2720DA6E22C0DFFF1D4A1E2A1EBE20
:1000F800CBD71E5001E1C2D727D12350225CD8B0FC
:1001080003D0000E066E20D122C006F01DD1235068
:10011800225CD8B003D0000E0D6E16D122C00DF0AF
:1001280013D12350225CD8B003D0000E146E0CD12A
:1001380022C014F009D12350225CD8B003D0000E9D
:100148001B6E02D122C01BF0FFD0000E1E6E000EE7
:100158001D6E1EBE08D01E5005E1040E1D5CD8B0F1
:10016800F3D001D0F1D01DC02CF0010E2C2622C0F6
:100178002DF02C2A02D0D8902D322C2EFCD72DA071
:1001880012D01DC026F01EC027F0000E296E070EE3
:10019800286EC2EC0CF0010E2624D96E000E272022
:1001A800DA6EDF8811D01DC026F01EC027F0000EC1
:1001B800296E070E286EC2EC0CF0010E2624D96EAB
:1001C800000E2720DA6EDF981D4A1E2A1EBECBD7E6
:1001D8001E5001E1C2D7B8D02250010B486E000E64
:1001E8001E6E000E1D6E1EBE08D01E5005E1040EC8
:1001F8001D5CD8B0A9D001D0A7D01DC02CF0010E2D
:100208002C2622C02DF02C2A02D0D8902D322C2E4C
:10021800FCD72DA012D01DC026F01EC027F0000E5E
:10022800296E070E286EC2EC0CF0010E2624D96E3A
:10023800000E2720DA6EDF8211D01DC026F01EC006
:1002480027F0000E296E070E286EC2EC0CF0010E86
:100258002624D96E000E2720DA6EDF921D4A1E2A48
:100268001EBECBD71E5070E1C2D72250010B256E9F
:10027800000E1E6E000E1D6E1EBE06D01E5064E1DE
:10028800040E1D5CD8B060D01DC02CF0010E2C26C9
:1002980022C02DF02C2A02D0D8902D322C2EFCD73B
:1002A8002DA012D01DC026F01EC027F0000E296E0A
:1002B800070E286EC2EC0CF0010E2624D96E000E33
:1002C8002720DA6EDF8411D01DC026F01EC027F06B
:1002D800000E296E070E286EC2EC0CF0010E2624C3
:1002E800D96E000E2720DA6EDF941D4A1E2AC4D765
:1002F80022C024F029D022C046F0476A25D022C067
:1003080023F022D02150010AD8B4B0D6030AD8B4B9
:10031800F4D6010AD8B4FBD6070AD8B402D7010A22
:10032800D8B409D7020AD8B410D70F0AD8B49DD7C1
:10033800010AD8B451D7030AD8B4DAD7010AD8B415
:10034800DAD7070AD8B4DBD7000E216EC68806D0E4
:10035800C7AAC7A403D0C688C7B0FED79E963BC01D
:10036800F5FF3AC0F8FF39C0F7FF38C0F6FF37C0CD
:10037800F4FF36C0F3FF35C0DAFF34C0D9FF33C00D
:10038800E2FF32C0E1FF31C0EAFF30C0E9FF2FC011
:10039800FBFF2EC0FAFF4992110093EF0CF0000EFC
:1003A8000001726F000E716F000172BF0AD0000168
:1003B800725106E1040E0001715DD8B0ECD201D093
:1003C800EAD24850D8B4A1D271C03CF072C03DF016
:1003D800000E3F6E070E3E6EAFEC0CF0010E3C2493
:1003E800D96E000E3D20DA6EDFA28FD271C03CF0CC
:1003F80072C03DF0000E3F6E070E3E6EAFEC0CF083
:10040800010E3C24D96E000E3D20DA6EDFAAC5D15C
:1004180071C03CF072C03DF0000E3F6E070E3E6E9C
:10042800AFEC0CF0040E3C26000E3D22010E3C24DD
:10043800D96E000E3D20DA6EDF5000016F6F0001AB
:100448006F51D65C000ED758D8B050D071C03CF070
:1004580072C03DF0000E3F6E070E3E6EAFEC0CF022
:10046800010E3C24D96E000E3D20DA6EDFB03ED07E
:1004780071C03CF072C03DF0000E3F6E070E3E6E3C
:10048800AFEC0CF0060E3C26000E3D22010E3C247B
:10049800D96E000E3D20DA6E130EDF6027D071C0D2
:1004A8003CF072C03DF0000E3F6E070E3E6EAFECA2
:1004B8000CF0060E3C26000E3D22010E3C24D96E9F
:1004C800000E3D20DA6EDF2A71C03CF072C03DF0AC
:1004D800000E3F6E070E3E6EAFEC0CF0010E3C2492
:1004E800D96E000E3D20DA6EDF804BD271C03CF031
:1004F80072C03DF0000E3F6E070E3E6EAFEC0CF082
:10050800040E3C26000E3D22010E3C24D96E000E3E
:100518003D20DA6EDF5000016F6F00016F51D65C2D
:10052800000ED758D8B055D071C03CF072C03DF01D
:10053800000E3F6E070E3E6EAFEC0CF0010E3C2431
:10054800D96E000E3D20DA6EDFB043D071C03CF0AA
:1005580072C03DF0000E3F6E070E3E6EAFEC0CF021
:10056800060E3C26000E3D22010E3C24D96E000EDC
:100578003D20DA6E140EDE18D8A42BD071C03CF0E2
:1005880072C03DF0000E3F6E070E3E6EAFEC0CF0F1
:10059800010E3C24D96E000E3D20DA6EDF80010E7C
:1005A800426E71C03CF072C03DF0000E3F6E070E07
:1005B8003E6EAFEC0CF0010E3C26000E3D22010E03
:1005C8003C24D96E000E3D20DA6EDF5023EC0CF08F
:1005D800D8D171C03CF072C03DF0000E3F6E070EDE
:1005E8003E6EAFEC0CF0040E3C26000E3D22010ED0
:1005F8003C24D96E000E3D20DA6EDF5000016F6F8B
:10060800706B00016F51D65C00017051D758D8A0AB
:100618003BD071C03CF072C03DF0000E3F6E070E3B
:100628003E6EAFEC0CF0010E3C24D96E000E3D205E
:10063800DA6EDFA029D071C03CF072C03DF0000E28
:100648003F6E070E3E6EAFEC0CF0060E3C26000E19
:100658003D22010E3C24D96E000E3D20DA6E130EA9
:10066800DF6012D071C03CF072C03DF0000E3F6EEA
:10067800070E3E6EAFEC0CF0010E3C24D96E000E56
:100688003D20DA6EDF907DD171C03CF072C03DF044
:10069800000E3F6E070E3E6EAFEC0CF0040E3C26CB
:1006A800000E3D22010E3C24D96E000E3D20DA6E6C
:1006B800DF5000016F6F00016F51D65C000ED758F4
:1006C800D8B05FD171C03CF072C03DF0000E3F6EF3
:1006D800070E3E6EAFEC0CF0010E3C24D96E000EF6
:1006E8003D20DA6EDFB04DD171C03CF072C03DF0F4
:1006F800000E3F6E070E3E6EAFEC0CF0060E3C2669
:10070800000E3D22010E3C24D96E000E3D20DA6E0B
:10071800140EDE18D8A435D171C03CF072C03DF07B
:10072800000E3F6E070E3E6EAFEC0CF0010E3C243F
:10073800D96E000E3D20DA6EDF9071C03CF072C0B9
:100748003DF0000E3F6E070E3E6EAFEC0CF0060E4D
:100758003C26000E3D22010E3C24D96E000E3D20A1
:10076800DA6E000EDF6E000E426E71C03CF072C091
:100778003DF0000E3F6E070E3E6EAFEC0CF0010E22
:100788003C26000E3D22010E3C24D96E000E3D2071
:10079800DA6EDF5023EC0CF0F4D071C03CF072C07C
:1007A8003DF0000E3F6E070E3E6EAFEC0CF0040EEF
:1007B8003C26000E3D22010E3C24D96E000E3D2041
:1007C800DA6EDF5000016F6F00016F51D65C000ECA
:1007D800D758D8B03DD071C03CF072C03DF0000E83
:1007E8003F6E070E3E6EAFEC0CF0010E3C24D96E46
:1007F800000E3D20DA6EDFB02BD071C03CF072C025
:100808003DF0000E3F6E070E3E6EAFEC0CF0010E91
:100818003C24D96E000E3D20DA6EDF80010E426E58
:1008280071C03CF072C03DF0000E3F6E070E3E6E88
:10083800AFEC0CF0010E3C26000E3D22010E3C24CC
:10084800D96E000E3D20DA6EDF5023EC0CF099D003
:1008580071C03CF072C03DF0000E3F6E070E3E6E58
:10086800AFEC0CF0040E3C26000E3D22010E3C2499
:10087800D96E000E3D20DA6EDF5000016F6F706B8D
:1008880000016F51D65C00017051D758D8A079D0BB
:1008980071C03CF072C03DF0000E3F6E070E3E6E18
:1008A800AFEC0CF0010E3C24D96E000E3D20DA6E40
:1008B800DFA067D071C03CF072C03DF0000E3F6E03
:1008C800070E3E6EAFEC0CF0010E3C24D96E000E04
:1008D8003D20DA6EDF90000E426E71C03CF072C0AF
:1008E8003DF0000E3F6E070E3E6EAFEC0CF0010EB1
:1008F8003C26000E3D22010E3C24D96E000E3D2000
:10090800DA6EDF5023EC0CF03CD071C03CF072C0C2
:100918003DF0000E3F6E070E3E6EAFEC0CF0010E80
:100928003C24D96E000E3D20DA6EDFA02AD071C0BB
:100938003CF072C03DF0000E3F6E070E3E6EAFEC0D
:100948000CF0010E3C24D96E000E3D20DA6EDF90CB
:10095800000E426E71C03CF072C03DF0000E3F6E5A
:10096800070E3E6EAFEC0CF0010E3C26000E3D2249
:10097800010E3C24D96E000E3D20DA6EDF5023ECC8
:100988000CF00001714B722B000172BF1AD50001E7
:10099800725101E10FD546501F5C47502058D8A02E
:1009A80007D081EC0BF0000E206E000E1F6E1200B7
:1009B8001F4A202A120067C03CF068C03DF0000EB4
:1009C8003F6E070E3E6EAFEC0CF0040E3C26000E98
:1009D8003D22010E3C24D96E000E3D20DA6E2350D4
:1009E800DE5CD8B02FD067C03CF068C03DF0000E88
:1009F8003F6E070E3E6EAFEC0CF0050E3C26000E67
:100A08003D22010E3C24D96E000E3D20DA6E2350A3
:100A1800DE5CD8A017D067C03CF068C03DF0000E7F
:100A28003F6E070E3E6EAFEC0CF0040E3C26000E37
:100A38003D22010E3C24D96E000E3D20DA6E23C003
:100A4800DFFFDCD167C03CF068C03DF0000E3F6EB0
:100A5800070E3E6EAFEC0CF0040E3C26000E3D2255
:100A6800010E3C24D96E000E3D20DA6EDE50235C68
:100A7800D8A0C4D167C03CF068C03DF0000E3F6EFE
:100A8800070E3E6EAFEC0CF0050E3C26000E3D2224
:100A9800010E3C24D96E000E3D20DA6E2350DE5C38
:100AA800D8B0ACD167C03CF068C03DF0000E3F6ED6
:100AB800070E3E6EAFEC0CF0040E3C26000E3D22F5
:100AC800010E3C24D96E000E3D20DA6E000EDF6E5A
:100AD80095D167C03CF068C03DF0000E3F6E070E30
:100AE8003E6EAFEC0CF0050E3C26000E3D22010ECA
:100AF8003C24D96E000E3D20DA6E67C03CF068C019
:100B08003DF0000E3F6E070E3E6EAFEC0CF0040E8B
:100B18003C26000E3D22010E3C24E16E000E3D20D5
:100B2800E26EDFCFE7FF120067C03CF068C03DF01F
:100B3800000E3F6E070E3E6EAFEC0CF0040E3C2626
:100B4800000E3D22010E3C24D96E000E3D20DA6EC7
:100B580067C03CF068C03DF0000E3F6E070E3E6E69
:100B6800AFEC0CF0050E3C26000E3D22010E3C2495
:100B7800E16E000E3D20E26EDE50E65CD8B016D085
:100B880067C03CF068C03DF0000E3F6E070E3E6E39
:100B9800AFEC0CF0040E3C26000E3D22010E3C2466
:100BA800D96E000E3D20DA6EDF06120067C03CF0F9
:100BB80068C03DF0000E3F6E070E3E6EAFEC0CF0C5
:100BC800050E3C26000E3D22010E3C24D96E000E77
:100BD8003D20DA6E67C03CF068C03DF0000E3F6E05
:100BE800070E3E6EAFEC0CF0040E3C26000E3D22C4
:100BF800010E3C24E16E000E3D20E26EDE50E65C04
:100C0800D8B0120067C03CF068C03DF0000E3F6EDF
:100C1800070E3E6EAFEC0CF0040E3C26000E3D2293
:100C2800010E3C24D96E000E3D20DA6EDF2A120038
:100C380067C03CF068C03DF0000E3F6E070E3E6E88
:100C4800AFEC0CF0040E3C26000E3D22010E3C24B5
:100C5800D96E000E3D20DA6E67C03CF068C03DF0EA
:100C6800000E3F6E070E3E6EAFEC0CF0050E3C26F4
:100C7800000E3D22010E3C24E16E000E3D20E26E86
:100C8800DE50E65CD8B047D067C03CF068C03DF0A5
:100C9800000E3F6E070E3E6EAFEC0CF0050E3C26C4
:100CA800000E3D22010E3C24D96E000E3D20DA6E66
:100CB800DF50426E67C03CF068C03DF0000E3F6EEA
:100CC800070E3E6EAFEC0CF0040E3C26000E3D22E3
:100CD800010E3C24D96E000E3D20DA6EDF500DEC7B
:100CE80007F00001696F67C03CF068C03DF0000E76
:100CF8003F6E070E3E6EAFEC0CF0040E3C26000E65
:100D08003D22010E3C24D96E000E3D20DA6E000112
:100D18006951DF5E120067C03CF068C03DF0000E0C
:100D28003F6E070E3E6EAFEC0CF0050E3C26000E33
:100D38003D22010E3C24D96E000E3D20DA6E67C0BC
:100D48003CF068C03DF0000E3F6E070E3E6EAFEC03
:100D58000CF0040E3C26000E3D22010E3C24E16EF0
:100D6800000E3D20E26EDE50E65CD8B0120067C08F
:100D78003CF068C03DF0000E3F6E070E3E6EAFECD3
:100D88000CF0050E3C26000E3D22010E3C24D96EC7
:100D9800000E3D20DA6EDF50426E67C03CF068C03E
:100DA8003DF0000E3F6E070E3E6EAFEC0CF0040EE9
:100DB8003C26000E3D22010E3C24D96E000E3D203B
:100DC800DA6EDF500DEC07F00001696F67C03CF088
:100DD80068C03DF0000E3F6E070E3E6EAFEC0CF0A3
:100DE800040E3C26000E3D22010E3C24D96E000E56
:100DF8003D20DA6E00016951DF2612002450000AF6
:100E0800D8B467D6010AD8B48FD6030AD8A412007A
:100E18000FD7446E000E436E4450425CD8B0D9D010
:100E280023500001606F616B0001601F611F604B00
:100E3800612B44500001626F636B00016051000137
:100E480062270001615100016323000163BF0AD0DA
:100E58000001635105E1C90E0001625DD8A002D00E
:100E6800320E89D023500001606F616B0001601F52
:100E7800611F604B612B44500001626F636B00017E
:100E880060510001622700016151000163230001E4
:100E980063BF0AD00001635105E1970E0001625D4E
:100EA800D8A002D0190E67D023500001606F616B83
:100EB8000001601F611F604B612B44500001626F8D
:100EC800636B00016051000162270001615100015C
:100ED8006323000163BF0AD00001635105E1650E79
:100EE8000001625DD8A002D0140E45D02350000145
:100EF800606F616B0001601F611F604B612B445084
:100F08000001626F636B00016051000162270001FC
:100F1800615100016323000163BF0AD000016351DE
:100F280005E14C0E0001625DD8A002D00A0E23D064
:100F380023500001606F616B0001601F611F604BEF
:100F4800612B44500001626F636B00016051000126
:100F580062270001615100016323000163BF0AD0C9
:100F68000001635105E1330E0001625DD8A002D093
:100F7800050E01D0010E436E43500001606F616B96
:100F880042500001626F636B0001621F631F624B76
:100F9800632B44500001646F656B000162510001CE
:100FA80064270001635100016523000160510001BD
:100FB800645D00016551800A0001666F000161519E
:100FC800800A00016659D8B0DFD042500008442496
:100FD800DAD023500001606F616B0001601F611F50
:100FE800604B612B44500001626F636B00016051DC
:100FF800000162270001615100016323000163BF02
:101008000CD00001635105E1C90E0001625DD8A052
:1010180004D042500008442489D023500001606F56
:10102800616B0001601F611F604B612B4450000120
:10103800626F636B0001605100016227000161511A
:1010480000016323000163BF0AD00001635105E179
:10105800970E0001625DD8A002D0190E67D0235008
:101068000001606F616B0001601F611F604B612BA5
:1010780044500001626F636B0001605100016227F8
:101088000001615100016323000163BF0AD0000120
:10109800635105E1650E0001625DD8A002D0140E0F
:1010A80045D023500001606F616B0001601F611F14
:1010B800604B612B44500001626F636B000160510B
:1010C800000162270001615100016323000163BF31
:1010D8000AD00001635105E14C0E0001625DD8A001
:1010E80002D00A0E23D023500001606F616B00010B
:1010F800601F611F604B612B44500001626F636B7E
:101108000001605100016227000161510001632361
:10111800000163BF0AD00001635105E1330E0001ED
:10112800625DD8A002D0050E01D0010E436E435077
:101138000001606F616B44500001626F636B0001D6
:10114800621F631F624B632B42500001646F656B23
:101158000001625100016427000163510001652309
:10116800000160510001645D00016551800A0001C1
:10117800666F00016151800A00016659D8B004D039
:10118800445000084224436E4350120067C03CF0AC
:1011980068C03DF0000E3F6E070E3E6EAFEC0CF0DF
:1011A800040E3C26000E3D22010E3C24D96E000E92
:1011B8003D20DA6EDF50D8A4ACD067C03CF068C0E0
:1011C8003DF0000E3F6E070E3E6EAFEC0CF0010EC8
:1011D8003C24D96E000E3D20DA6EDFA802D0010E45
:1011E80001D0000E456E67C03CF068C03DF0000EAF
:1011F8003F6E070E3E6EAFEC0CF0010E3C24D96E2C
:10120800000E3D20DA6EDFA602D0010E01D0000EDE
:10121800451AD8B47ED067C03CF068C03DF0000ED7
:101228003F6E070E3E6EAFEC0CF0010E3C24D96EFB
:10123800000E3D20DA6E67C03CF068C03DF0000E3D
:101248003F6E070E3E6EAFEC0CF0010E3C24E16ED3
:10125800000E3D20E26EDFB802D0E79601D0E786A7
:1012680067C03CF068C03DF0000E3F6E070E3E6E52
:10127800AFEC0CF0010E3C24D96E000E3D20DA6E66
:10128800000EDFB6010E426E67C03CF068C03DF04C
:10129800000E3F6E070E3E6EAFEC0CF0020E3C26C1
:1012A800000E3D22010E3C24D96E000E3D20DA6E60
:1012B800DF5023EC0CF067C03CF068C03DF0000E36
:1012C8003F6E070E3E6EAFEC0CF0010E3C24D96E5B
:1012D800000E3D20DA6EDFB602D0010E01D0000EFE
:1012E800426E67C03CF068C03DF0000E3F6E070ECE
:1012F8003E6EAFEC0CF0030E3C26000E3D22010EB4
:101308003C24D96E000E3D20DA6EDF5023EC0CF041
:10131800120067C03CF068C03DF0000E3F6E070E3B
:101328003E6EAFEC0CF0040E3C26000E3D22010E82
:101338003C24D96E000E3D20DA6EDF50D8B412007E
:10134800BCD067C03CF068C03DF0000E3F6E070E91
:101358003E6EAFEC0CF0040E3C26000E3D22010E52
:101368003C24D96E000E3D20DA6E000EDF6E1200AE
:1013780067C03CF068C03DF0000E3F6E070E3E6E41
:10138800AFEC0CF0040E3C26000E3D22010E3C246E
:10139800D96E000E3D20DA6EDE50235CD8B016D030
:1013A80067C03CF068C03DF0000E3F6E070E3E6E11
:1013B800AFEC0CF0040E3C26000E3D22010E3C243E
:1013C800D96E000E3D20DA6EDF06120067C03CF0D1
:1013D80068C03DF0000E3F6E070E3E6EAFEC0CF09D
:1013E800040E3C26000E3D22010E3C24D96E000E50
:1013F8003D20DA6E000EDF6E120067C03CF068C058
:101408003DF0000E3F6E070E3E6EAFEC0CF0040E82
:101418003C26000E3D22010E3C24D96E000E3D20D4
:10142800DA6EDE50235CD8B031D023C042F067C0FA
:101438003CF068C03DF0000E3F6E070E3E6EAFEC0C
:101448000CF0040E3C26000E3D22010E3C24D96E01
:10145800000E3D20DA6EDF500DEC07F0456E67C0D8
:101468003CF068C03DF0000E3F6E070E3E6EAFECDC
:101478000CF0040E3C26000E3D22010E3C24D96ED1
:10148800000E3D20DA6E4550DF5E120067C03CF06A
:1014980068C03DF0000E3F6E070E3E6EAFEC0CF0DC
:1014A800040E3C26000E3D22010E3C24D96E000E8F
:1014B8003D20DA6E000EDF6E12002450000AD8B408
:1014C80040D7010AD8B454D7030AD8A4120095D734
:1014D800D550F80B0309D56ED596D59AD58CD58EEF
:1014E800000E0001636F000E626F000163BF0AD037
:1014F8000001635106E1040E0001625DD8B09ED080
:1015080001D09CD062C03CF063C03DF0000E3F6E3D
:10151800070E3E6EAFEC0CF0010E3C24D96E000EA7
:101528003D20DA6EDF9062C03CF063C03DF0000EF3
:101538003F6E070E3E6EAFEC0CF0010E3C24D96EE8
:10154800000E3D20DA6EDF9462C03CF063C03DF0CF
:10155800000E3F6E070E3E6EAFEC0CF0010E3C2401
:10156800D96E000E3D20DA6EDF8262C03CF063C0A7
:101578003DF0000E3F6E070E3E6EAFEC0CF0010E14
:101588003C24D96E000E3D20DA6EDF8662C03CF046
:1015980063C03DF0000E3F6E070E3E6EAFEC0CF0E0
:1015A800010E3C24D96E000E3D20DA6EDF8862C041
:1015B8003CF063C03DF0000E3F6E070E3E6EAFEC90
:1015C8000CF0040E3C26000E3D22010E3C24D96E80
:1015D800000E3D20DA6E000EDF6E62C03CF063C084
:1015E8003DF0000E3F6E070E3E6EAFEC0CF0050EA0
:1015F8003C26000E3D22010E3C24D96E000E3D20F3
:10160800DA6E000EDF6E62C03CF063C03DF0000E83
:101618003F6E070E3E6EAFEC0CF0010E3C24D96E07
:10162800000E3D20DA6EDF9A0001624B632B000149
:1016380063BF68D70001635101E15DD7000E026EF8
:10164800010E036E020E046E050E096E040E0A6E7C
:10165800030E0B6E060E106E070E116E090E126E3B
:101668000B0E176E0A0E186E080E196E000E00018A
:10167800616F000E606F000161BF08D00001615109
:101688003BE1040E0001605DD8B01200010E426E0D
:1016980060C03CF061C03DF0000E3F6E070E3E6E2C
:1016A800AFEC0CF0020E3C26000E3D22010E3C244D
:1016B800D96E000E3D20DA6EDF5023EC0CF0000EE0
:1016C800426E60C03CF061C03DF0000E3F6E070EF8
:1016D8003E6EAFEC0CF0030E3C26000E3D22010ED0
:1016E8003C24D96E000E3D20DA6EDF5023EC0CF05E
:1016F8000001604B612BBFD71200000E00016E6F16
:10170800000E6D6F00016EBF0AD000016E5106E138
:10171800040E00016D5DD8B0120001D012002550F2
:10172800D8A412D06DC03CF06EC03DF0000E3F6EE4
:10173800070E3E6EAFEC0CF0010E3C24D96E000E85
:101748003D20DA6EDFA407D06DC067F06EC068F088
:10175800CAEC08F069D06DC03CF06EC03DF0000ED8
:101768003F6E070E3E6EAFEC0CF0010E3C24D96EB6
:10177800000E3D20DA6EDFA802D0010E01D0000E67
:1017880000016B6F6DC03CF06EC03DF0000E3F6E07
:10179800070E3E6EAFEC0CF0010E3C24D96E000E25
:1017A8003D20DA6EDFA602D0010E01D0000E000146
:1017B8006B1BD8B407D06DC067F06EC068F0CAEC78
:1017C80008F032D06DC03CF06EC03DF0000E3F6EA8
:1017D800070E3E6EAFEC0CF0050E3C26000E3D22C7
:1017E800010E3C24D96E000E3D20DA6E6DC03CF02F
:1017F8006EC03DF0000E3F6E070E3E6EAFEC0CF073
:10180800040E3C26000E3D22010E3C24E16E000E23
:101818003D20E26EDE50E618D8B406D06DC067F001
:101828006EC068F0DFEC04F000016D4B6E2B000118
:101838006EBF75D700016E5101E16AD71200436E81
:1018480048D042B002D08B9001D08B80120042B0B9
:1018580002D08B9201D08B82120042B002D08B94BE
:1018680001D08B84120042B002D08B9601D08B86B7
:10187800120042B002D08B9801D08B88120042B07F
:1018880002D08B9A01D08B8A120042B002D08B9C76
:1018980001D08B8C120042B002D08B9E01D08B8E6F
:1018A800120042B002D08A9A01D08A8A120042B04D
:1018B80002D08A9E01D08A8E120042B002D0899846
:1018C80001D08988120042B002D0899A01D0898A51
:1018D80012004350000AD8B4B4D7010AD8B4B7D715
:1018E800030AD8B4BAD7010AD8B4BDD7070AD8B4FE
:1018F800C0D7010AD8B4C3D7030AD8B4C6D7010AD7
:10190800D8B4C9D70F0AD8B4CCD7010AD8B4CFD71E
:10191800030AD8B4D2D7010AD8A41200D4D7F20E39
:10192800F66E190EF76E000EF86E0900F5CF46F048
:101938000900F5CF47F00900F5CF48F000EE01F0B7
:10194800250EEE6AE806FDE149904992000EF86E10
:101958000001E6EF0CF03C503E02F3CF40F0F4CF2C
:1019680041F03C503F02F35041263D503E02F350B7
:10197800412640C03CF041C03DF0120026502802EC
:10198800F3CF2AF0F4CF2BF026502902F3502B2660
:1019980027502802F3502B262AC026F02BC027F008
:1019A8001200F19E7888788CC78EC650F00B060915
:1019B800C66EC580460EC86E9E969D86F28EF28CC7
:1019C800C68A1200D388D38AD38CF2EC0CF0D5ECFB
:1019D8000CF06CEC0AF0D3EC01F0FDD7000E926E1F
:0D19E800500E936E000E946E1200960001DA
:020000040020DA
:08000000FFFFFFFFFFFFFFFF00
:020000040030CA
:0E00000000281F1EFF0881FF03C003E003401D
:00000001FF
