:04000000B2EF00F06B
:100008002182FACF03F0FBCF04F0E9CF05F0EACF65
:1000180006F0E1CF07F0E2CF08F0D9CF09F0DACF48
:100028000AF0F3CF0BF0F4CF0CF0F6CF0DF0F7CFCA
:100038000EF0F8CF0FF0F5CF10F09EA671D0C9CF13
:1000480015F0166AC698C6BC02D0C6AE03D0C69CC8
:10005800C69E2BD0C7AAC7B408D0D8901630016E58
:100068001530116E01C012F020D0C7BAC7B41FD026
:10007800230E11181210D8A405D015C01BF016C0F5
:100088001CF013D0270E11181210D8A405D015C0D3
:100098001DF016C01EF009D02B0E11181210D8A48E
:1000A80004D015C01FF016C020F0C68838D0C7AAE3
:1000B800C7A435D0D8901630026E1530016E230EC5
:1000C80001180210D8A403D01BC0C9FF25D0D890AE
:1000D8001630026E1530016E270E01180210D8A4D2
:1000E80003D01DC0C9FF18D0D8901630026E153045
:1000F800016E2B0E01180210D8A403D01FC0C9FF2F
:100108000BD0D8901630026E1530016E2F0E0118E4
:100118000210D8B4D6CFC9FFC688C7B0FED79E96FE
:1001280010C0F5FF0FC0F8FF0EC0F7FF0DC0F6FFB7
:100138000CC0F4FF0BC0F3FF0AC0DAFF09C0D9FFF7
:1001480008C0E2FF07C0E1FF06C0EAFF05C0E9FFFB
:1001580004C0FBFF03C0FAFF2192110017EF01F062
:100168001F502010D8B44CD01B50D65C1C50D75808
:10017800D8B00BD019501A10D8A407D0000E1A6E98
:10018800010E196E89888B8010D0D6501B5CD75011
:100198001C58D8B00AD019041A10D8A406D0000EDA
:1001A8001A6E000E196E89988B901D50D65C1E50E1
:1001B800D758D8B00BD017501810D8A407D0000EB5
:1001C800186E010E176E898A8B8210D0D6501D5C6E
:1001D800D7501E58D8B00AD017041810D8A406D083
:1001E800000E186E000E176E899A8B92D604080EB0
:1001F800D758D8A01200000ED76E000ED66E120087
:1002080017501810D8A404D019501A10D8B41200D6
:100218008998899A000E186E000E176E000E1A6ED5
:10022800000E196E1200CA0EF66E020EF76E000E60
:10023800F86E00EE1BF010EE06F00900F5CFEEFFA9
:10024800E550E150FAE100EE11F00A0EEE6AE80618
:10025800FDE121902192000147EF01F09388938CF2
:10026800F19E7888788CC78EC650F00B0609C66E4A
:10027800C580460E6F6E460EC86E9E969D86F28E9F
:10028800F28CC68A1200D388D38AD38C939E94901A
:10029800949294949496000E8B6E32EC01F058EC84
:1002A80001F0B4EC00F0FDD7D550F80B0309D56E7A
:1002B800D596D59AD58CD58E9298929A8998899AFE
:0802C80012008000C8000100D3
:020000040020DA
:08000000FFFFFFFFFFFFFFFF00
:020000040030CA
:0E00000000281F1EFF0881FF03C003E003401D
:00000001FF
