:0400000030EF04F0E9
:100008004582FACF0BF0FBCF0CF0E9CF0DF0EACF29
:100018000EF0E1CF0FF0E2CF10F0D9CF11F0DACF28
:1000280012F0F3CF13F0F4CF14F0F6CF15F0F7CFAA
:1000380016F0F8CF17F0F5CF18F09EA6EFD3C9CF7A
:100048003EF0C698C6BC02D0C6AE03D0C69CC69EBB
:1000580099D2C7AAC7B401D093D2C7BAC7B494D2A9
:100068003D50D8A414D23EC03DF08CD2000E3A6E5A
:10007800000E396E3A5005E1040E395CD8B080D2D2
:1000880001D07ED239C001F03AC002F0000E046EF1
:100098000C0E036E71EC10F00A0E0126000E0222FF
:1000A800600E0124D96E000E0220DA6EDE503E5C2E
:1000B800D8B017D039C001F03AC002F0000E046E73
:1000C8000C0E036E71EC10F0060E0126000E0222D3
:1000D800600E0124D96E000E0220DA6E000EDF6E6B
:1000E80016D039C001F03AC002F0000E046E0C0EB2
:1000F800036E71EC10F0060E0126000E0222600E4F
:100108000124D96E000E0220DA6E3EC0DFFF394AA4
:100118003A2A3A5001E1B0D733D200016A513E5C25
:10012800D8B004D0000E0001666F2AD23EC066F037
:1001380027D2000176513E5CD8B004D0000E0001F1
:10014800726F1ED23EC072F01BD2000182513E5C1B
:10015800D8B004D0000E00017E6F12D23EC07EF0EF
:100168000FD200018E513E5CD8B004D0000E0001C1
:100178008A6F06D23EC08AF003D2000E3A6E000E95
:10018800396E3A5005E1040E395CD8B0F9D101D086
:10019800F7D139C001F03AC002F0000E046E0C0E1F
:1001A800036E71EC10F0010E0126000E0222600EA3
:1001B8000124D96E000E0220DA6ED8903934076E09
:1001C8003EC008F0072A02D0D8900832072EFCD784
:1001D8000850030BDF6E394A3A2A3A5001E1D3D767
:1001E800CFD13EC061F0CCD13EC06DF0C9D13EC088
:1001F80079F0C6D13EC085F0C3D1000E3A6E000E2C
:10020800396E3A5005E1040E395CD8B0B9D101D045
:10021800B7D1D8903934076E3EC008F0072A02D00B
:10022800D8900832072EFCD7030E0816D8B413D07E
:1002380039C001F03AC002F0000E046E0C0E036ED5
:1002480071EC10F0600E0124D96E000E0220DA6EF7
:100258000001DF8812D039C001F03AC002F0000E68
:10026800046E0C0E036E71EC10F0600E0124D96E52
:10027800000E0220DA6E0001DF98394A3A2A3A5015
:1002880001E1C1D77DD13EB003D00001609902D011
:100298000001608975D13EB003D000016C9902D08D
:1002A80000016C896DD13EB003D00001789902D06D
:1002B8000001788965D13EB003D00001849902D04D
:1002C800000184895DD13E50030B446E59D13EB084
:1002D80003D00001609302D00001608351D13EB089
:1002E80003D000016C9302D000016C8349D13EB069
:1002F80003D00001789302D00001788341D13EB049
:1003080003D00001849302D00001848339D13E5088
:10031800030B416E35D13EB003D00001609502D089
:10032800000160852DD13EB003D000016C9502D04C
:1003380000016C8525D13EB003D00001789502D02C
:10034800000178851DD13EB003D00001849502D00C
:100358000001848515D1000E3A6E000E396E3A50B0
:1003680005E1040E395CD8B00BD101D009D139C0F0
:1003780001F03AC002F0000E046E0C0E036E71EC30
:1003880010F0080E0126000E0222600E0124D96E1C
:10039800000E0220DA6E3EC0DFFF394A3A2A3A5090
:1003A80001E1DFD7EDD03EC068F0EAD03EC074F07E
:1003B800E7D03EC080F0E4D03EC08CF0E1D0000E23
:1003C8003A6E000E396E3A5005E1040E395CD8B029
:1003D800D7D001D0D5D039C001F03AC002F0000E14
:1003E800046E0C0E036E71EC10F0090E0126000E5F
:1003F8000222600E0124D96E000E0220DA6E3EC081
:10040800DFFF394A3A2A3A5001E1DFD7B9D03EC076
:1004180069F0B6D03EC075F0B3D03EC081F0B0D020
:100428003EC08DF0ADD0000E3A6E000E396E3A50D7
:1004380005E1040E395CD8B0A3D001D0A1D039C0F1
:1004480001F03AC002F0000E046E0C0E036E71EC5F
:1004580010F00A0E0126000E0222600E0124D96E49
:10046800000E0220DA6E3EC0DFFF394A3A2A3A50BF
:1004780001E1DFD785D03EC06AF082D03EC076F079
:100488007FD03EC082F07CD03EC08EF079D03D5007
:10049800010AD8B4EBD5030AD8B43FD6010AD8B4B8
:1004A80048D6070AD8B451D6010AD8B45AD6030A8E
:1004B800D8B463D6010AD8B4A0D60F0AD8B427D7BF
:1004C800010AD8B400D7030AD8B445D7010AD8B46A
:1004D80076D7070AD8B4A7D7010AD8B482D6030AB0
:1004E800D8B482D6010AD8B482D61F0AD8B482D624
:1004F800010AD8B4ECD6030AD8B4F1D6010AD8B4A4
:10050800F6D6070AD8B4FBD6010AD8B404D7030A2A
:10051800D8B409D7010AD8B40ED70F0AD8B413D75C
:10052800010AD8B4B0D6030AD8B4B5D6010AD8B4EB
:10053800BAD6070AD8B4BFD6010AD8B434D7030A42
:10054800D8B434D7010AD8B434D73F0AD8B434D78A
:10055800010AD8B45CD7030AD8B45CD7010AD8B466
:100568005CD7070AD8B45CD7010AD8B484D7030A81
:10057800D8B484D7010AD8B484D70F0AD8B484D79A
:10058800000E3D6EC68849D1C7AAC7A446D13D50C2
:10059800D8A4C5D03EC03DF03DD165C0C9FF38D113
:1005A80071C0C9FF35D17DC0C9FF32D189C0C9FF2B
:1005B8002FD185C007F0030E0716060E086ED890D7
:1005C8000736082EFCD779C009F0030E0916093A38
:1005D800F00E09166DC00AF0030E0A16D8900A36F6
:1005E800D8900A3600016151030B0A1009102ED069
:1005F80061C0C9FF0DD16DC0C9FF0AD179C0C9FF5B
:1006080007D185C0C9FF04D1000160A703D0076ADC
:10061800072A01D0076A000184A703D0400E086E9C
:1006280001D0086A000178A703D0100E096E01D026
:10063800096A00016CA703D00A6A0A2A01D00A6A6B
:10064800D8900A36D8900A3409100810071041D0FB
:100658000001000E60B7010E3CD00001000E6CB71F
:10066800010E37D00001000E78B7010E32D000011C
:10067800000E84B7010E2DD044C0C9FFC9D00001B7
:10068800000E60B3010E25D00001000E6CB3010E00
:1006980020D00001000E78B3010E1BD00001000E1F
:1006A80084B3010E16D041C0C9FFB2D00001000EBC
:1006B80060B5010E0ED00001000E6CB5010E09D018
:1006C8000001000E78B5010E04D00001000E84B5BB
:1006D800010EC96E9DD068C0C9FF9AD074C0C9FF09
:1006E80097D080C0C9FF94D08CC0C9FF91D069C091
:1006F800C9FF8ED075C0C9FF8BD081C0C9FF88D013
:100708008DC0C9FF85D06AC0C9FF82D076C0C9FF35
:100718007FD082C0C9FF7CD08EC0C9FF79D03D5040
:10072800010AD8B43AD7030AD8B437D7010AD8B4DB
:1007380037D7070AD8B437D7010AD8B437D7030A46
:10074800D8B437D7010AD8B45FD70F0AD8B4ABD713
:10075800010AD8B491D7030AD8B4BDD7010AD8B4CE
:10076800C6D7070AD8B4CFD7010AD8B441D7030AE5
:10077800D8B441D7010AD8B441D71F0AD8B441D751
:10078800010AD8B47CD7030AD8B47ED7010AD8B4F2
:1007980080D7070AD8B482D7010AD8B487D7030A02
:1007A800D8B489D7010AD8B48BD70F0AD8B48DD753
:1007B800010AD8B44DD7030AD8B44FD7010AD8B420
:1007C80051D7070AD8B453D7010AD8B484D7030A33
:1007D800D8B484D7010AD8B484D73F0AD8B484D708
:1007E800010AD8B484D7030AD8B484D7010AD8B484
:1007F80084D7070AD8B484D7010AD8B484D7030A9F
:10080800D8B484D7010AD8B484D70F0AD8B484D707
:10081800000E3D6EC688C7B0FED79E9618C0F5FF7D
:1008280017C0F8FF16C0F7FF15C0F6FF14C0F4FF95
:1008380013C0F3FF12C0DAFF11C0D9FF10C0E2FFE6
:100848000FC0E1FF0EC0EAFF0DC0E9FF0CC0FBFFBF
:100858000BC0FAFF459211003CEF10F0000E386E05
:10086800000E376E385005E1040E375CD8B0120020
:1008780001D012004450D8B4A5D237C019F038C0FE
:100888001AF0000E1C6E0C0E1B6E5EEC10F0600E63
:100898001924D96E000E1A20DA6E0001DFA292D256
:1008A80037C019F038C01AF0000E1C6E0C0E1B6E03
:1008B8005EEC10F0010E1926000E1A22600E1924A3
:1008C800D96E000E1A20DA6EDF50D8B4C4D137C002
:1008D80019F038C01AF0000E1C6E0C0E1B6E5EEC80
:1008E80010F0050E1926000E1A22600E1924D96E72
:1008F800000E1A20DA6EDF50356E3550D65C000EC9
:10090800D758D8B052D037C019F038C01AF0000EF6
:100918001C6E0C0E1B6E5EEC10F0600E1924D96E66
:10092800000E1A20DA6E0001DFB03FD037C019F090
:1009380038C01AF0000E1C6E0C0E1B6E5EEC10F028
:10094800070E1926000E1A22600E1924D96E000E01
:100958001A20DA6E130EDF6028D037C019F038C0BD
:100968001AF0000E1C6E0C0E1B6E5EEC10F0070EDB
:100978001926000E1A22600E1924D96E000E1A20AC
:10098800DA6EDF2A37C019F038C01AF0000E1C6E74
:100998000C0E1B6E5EEC10F0600E1924D96E000E62
:1009A8001A20DA6E0001DF804BD237C019F038C048
:1009B8001AF0000E1C6E0C0E1B6E5EEC10F0050E8D
:1009C8001926000E1A22600E1924D96E000E1A205C
:1009D800DA6EDF50356E3550D65C000ED758D8B079
:1009E80057D037C019F038C01AF0000E1C6E0C0E24
:1009F8001B6E5EEC10F0600E1924D96E000E1A20E2
:100A0800DA6E0001DFB044D037C019F038C01AF0F0
:100A1800000E1C6E0C0E1B6E5EEC10F0070E1926F5
:100A2800000E1A22600E1924D96E000E1A20DA6EF2
:100A3800140EDE18D8A42CD037C019F038C01AF01C
:100A4800000E1C6E0C0E1B6E5EEC10F0600E19246E
:100A5800D96E000E1A20DA6E0001DF80010E1F6EBB
:100A680037C019F038C01AF0000E1C6E0C0E1B6E41
:100A78005EEC10F0020E1926000E1A22600E1924E0
:100A8800D96E000E1A20DA6EDF50CCEC0FF0D8D1F8
:100A980037C019F038C01AF0000E1C6E0C0E1B6E11
:100AA8005EEC10F0050E1926000E1A22600E1924AD
:100AB800D96E000E1A20DA6EDF50356E366A355060
:100AC800D65C3650D758D8A03DD037C019F038C0BA
:100AD8001AF0000E1C6E0C0E1B6E5EEC10F0600E11
:100AE8001924D96E000E1A20DA6E0001DFA02AD070
:100AF80037C019F038C01AF0000E1C6E0C0E1B6EB1
:100B08005EEC10F0070E1926000E1A22600E19244A
:100B1800D96E000E1A20DA6E130EDF6013D037C0BC
:100B280019F038C01AF0000E1C6E0C0E1B6E5EEC2D
:100B380010F0600E1924D96E000E1A20DA6E00012A
:100B4800DF907ED137C019F038C01AF0000E1C6E45
:100B58000C0E1B6E5EEC10F0050E1926000E1A2204
:100B6800600E1924D96E000E1A20DA6EDF50356E29
:100B78003550D65C000ED758D8B062D137C019F0BE
:100B880038C01AF0000E1C6E0C0E1B6E5EEC10F0D6
:100B9800600E1924D96E000E1A20DA6E0001DFB03B
:100BA8004FD137C019F038C01AF0000E1C6E0C0E69
:100BB8001B6E5EEC10F0070E1926000E1A22600E4E
:100BC8001924D96E000E1A20DA6E140EDE18D8A475
:100BD80037D137C019F038C01AF0000E1C6E0C0E51
:100BE8001B6E5EEC10F0600E1924D96E000E1A20F0
:100BF800DA6E0001DF9037C019F038C01AF0000E25
:100C08001C6E0C0E1B6E5EEC10F0070E1926000E03
:100C18001A22600E1924D96E000E1A20DA6E000E00
:100C2800DF6E000E1F6E37C019F038C01AF0000EC4
:100C38001C6E0C0E1B6E5EEC10F0020E1926000ED8
:100C48001A22600E1924D96E000E1A20DA6EDF50AF
:100C5800CCEC0FF0F5D037C019F038C01AF0000E00
:100C68001C6E0C0E1B6E5EEC10F0050E1926000EA5
:100C78001A22600E1924D96E000E1A20DA6EDF507F
:100C8800356E3550D65C000ED758D8B03FD037C037
:100C980019F038C01AF0000E1C6E0C0E1B6E5EECBC
:100CA80010F0600E1924D96E000E1A20DA6E0001B9
:100CB800DFB02CD037C019F038C01AF0000E1C6E07
:100CC8000C0E1B6E5EEC10F0600E1924D96E000E2F
:100CD8001A20DA6E0001DF80010E1F6E37C019F08E
:100CE80038C01AF0000E1C6E0C0E1B6E5EEC10F075
:100CF800020E1926000E1A22600E1924D96E000E53
:100D08001A20DA6EDF50CCEC0FF09AD037C019F009
:100D180038C01AF0000E1C6E0C0E1B6E5EEC10F044
:100D2800050E1926000E1A22600E1924D96E000E1F
:100D38001A20DA6EDF50356E366A3550D65C36507A
:100D4800D758D8A07DD037C019F038C01AF0000E97
:100D58001C6E0C0E1B6E5EEC10F0600E1924D96E22
:100D6800000E1A20DA6E0001DFA06AD037C019F031
:100D780038C01AF0000E1C6E0C0E1B6E5EEC10F0E4
:100D8800600E1924D96E000E1A20DA6E0001DF9069
:100D9800000E1F6E37C019F038C01AF0000E1C6E16
:100DA8000C0E1B6E5EEC10F0020E1926000E1A22B5
:100DB800600E1924D96E000E1A20DA6EDF50CCECC2
:100DC8000FF03ED037C019F038C01AF0000E1C6E74
:100DD8000C0E1B6E5EEC10F0600E1924D96E000E1E
:100DE8001A20DA6E0001DFA02BD037C019F038C006
:100DF8001AF0000E1C6E0C0E1B6E5EEC10F0600EEE
:100E08001924D96E000E1A20DA6E0001DF90000E48
:100E18001F6E37C019F038C01AF0000E1C6E0C0E89
:100E28001B6E5EEC10F0020E1926000E1A22600EE0
:100E38001924D96E000E1A20DA6EDF50CCEC0FF0B0
:100E480037C019F038C01AF0000E1C6E0C0E1B6E5D
:100E58005EEC10F0090E1926000E1A22600E1924F5
:100E6800D96E000E1A20DA6E37C019F038C01AF0A1
:100E7800000E1C6E0C0E1B6E5EEC10F00B0E19268D
:100E8800000E1A22600E1924E16E000E1A20E26E7E
:100E9800DE50E65CD8A01DD037C031F038C032F043
:100EA80045EC0FF037C019F038C01AF0000E1C6E70
:100EB8000C0E1B6E5EEC10F00B0E1926000E1A229B
:100EC800600E1924D96E000E1A20DA6E000EDF6E3D
:100ED80015D037C019F038C01AF0000E1C6E0C0E71
:100EE8001B6E5EEC10F00B0E1926000E1A22600E17
:100EF8001924D96E000E1A20DA6EDF2A374A382AEA
:100F0800385001E1B1D412002BC019F02CC01AF0EE
:100F1800000E1C6E0C0E1B6E5EEC10F00A0E1926ED
:100F2800000E1A22600E1924D96E000E1A20DA6EED
:100F38002BC019F02CC01AF0000E1C6E0C0E1B6E84
:100F48005EEC10F0050E1926000E1A22600E192408
:100F5800E16E000E1A20E26EDE50E65CD8B057D083
:100F68002BC019F02CC01AF0000E1C6E0C0E1B6E54
:100F78005EEC10F00A0E1926000E1A22600E1924D3
:100F8800D96E000E1A20DA6E2BC019F02CC01AF098
:100F9800000E1C6E0C0E1B6E5EEC10F0060E192671
:100FA800000E1A22600E1924E16E000E1A20E26E5D
:100FB800DE50E65CD8A02BD02BC019F02CC01AF05C
:100FC800000E1C6E0C0E1B6E5EEC10F00A0E19263D
:100FD800000E1A22600E1924D96E000E1A20DA6E3D
:100FE8002BC019F02CC01AF0000E1C6E0C0E1B6ED4
:100FF8005EEC10F0050E1926000E1A22600E192458
:10100800E16E000E1A20E26EDFCFE7FF10D22BC090
:1010180019F02CC01AF0000E1C6E0C0E1B6E5EEC44
:1010280010F0050E1926000E1A22600E1924D96E2A
:10103800000E1A20DA6E2BC019F02CC01AF0000E20
:101048001C6E0C0E1B6E5EEC10F00A0E1926000EBC
:101058001A22600E1924E16E000E1A20E26EDE508C
:10106800E65CD8A0E4D12BC019F02CC01AF0000E11
:101078001C6E0C0E1B6E5EEC10F00A0E1926000E8C
:101088001A22600E1924D96E000E1A20DA6E2BC0AF
:1010980019F02CC01AF0000E1C6E0C0E1B6E5EECC4
:1010A80010F0060E1926000E1A22600E1924E16EA1
:1010B800000E1A20E26EDE50E65CD8B0B8D12BC024
:1010C80019F02CC01AF0000E1C6E0C0E1B6E5EEC94
:1010D80010F0050E1926000E1A22600E1924D96E7A
:1010E800000E1A20DA6E000EDF6EA1D12BC019F0A7
:1010F8002CC01AF0000E1C6E0C0E1B6E5EEC10F06D
:10110800060E1926000E1A22600E1924D96E000E3A
:101118001A20DA6E2BC019F02CC01AF0000E1C6EC3
:101128000C0E1B6E5EEC10F0050E1926000E1A222E
:10113800600E1924E16E000E1A20E26EDFCFE7FF81
:1011480012002BC019F02CC01AF0000E1C6E0C0EE9
:101158001B6E5EEC10F0050E1926000E1A22600EAA
:101168001924D96E000E1A20DA6E2BC019F02CC083
:101178001AF0000E1C6E0C0E1B6E5EEC10F0060EC4
:101188001926000E1A22600E1924E16E000E1A208C
:10119800E26EDE50E65CD8B016D02BC019F02CC039
:1011A8001AF0000E1C6E0C0E1B6E5EEC10F0050E95
:1011B8001926000E1A22600E1924D96E000E1A2064
:1011C800DA6EDF0612002BC019F02CC01AF0000EE0
:1011D8001C6E0C0E1B6E5EEC10F0060E1926000E2F
:1011E8001A22600E1924D96E000E1A20DA6E2BC04E
:1011F80019F02CC01AF0000E1C6E0C0E1B6E5EEC63
:1012080010F0050E1926000E1A22600E1924E16E40
:10121800000E1A20E26EDE50E65CD8B012002BC039
:1012280019F02CC01AF0000E1C6E0C0E1B6E5EEC32
:1012380010F0050E1926000E1A22600E1924D96E18
:10124800000E1A20DA6EDF2A12002BC019F02CC00B
:101258001AF0000E1C6E0C0E1B6E5EEC10F0050EE4
:101268001926000E1A22600E1924D96E000E1A20B3
:10127800DA6E2BC019F02CC01AF0000E1C6E0C0E82
:101288001B6E5EEC10F0060E1926000E1A22600E78
:101298001924E16E000E1A20E26EDE50E65CD8B02A
:1012A8004DD02BC019F02CC01AF0000E1C6E0C0E7D
:1012B8001B6E5EEC10F0060E1926000E1A22600E48
:1012C8001924D96E000E1A20DA6EDF502F6E2BC04B
:1012D80019F02CC01AF0000E1C6E0C0E1B6E5EEC82
:1012E80010F0050E1926000E1A22600E1924D96E68
:1012F800000E1A20DA6EDF50306E2FC01FF02BC0A0
:1013080020F02CC021F030503AEC0AF02D6E2BC0A2
:1013180019F02CC01AF0000E1C6E0C0E1B6E5EEC41
:1013280010F0050E1926000E1A22600E1924D96E27
:10133800000E1A20DA6E2D50DF5E12002BC019F055
:101348002CC01AF0000E1C6E0C0E1B6E5EEC10F01A
:10135800060E1926000E1A22600E1924D96E000EE8
:101368001A20DA6E2BC019F02CC01AF0000E1C6E71
:101378000C0E1B6E5EEC10F0050E1926000E1A22DC
:10138800600E1924E16E000E1A20E26EDE50E65C53
:10139800D8B012002BC019F02CC01AF0000E1C6E29
:1013A8000C0E1B6E5EEC10F0060E1926000E1A22AB
:1013B800600E1924D96E000E1A20DA6EDF502F6ED7
:1013C8002BC019F02CC01AF0000E1C6E0C0E1B6EF0
:1013D8005EEC10F0050E1926000E1A22600E192474
:1013E800D96E000E1A20DA6EDF50306E2FC01FF053
:1013F8002BC020F02CC021F030503AEC0AF02D6EB2
:101408002BC019F02CC01AF0000E1C6E0C0E1B6EAF
:101418005EEC10F0050E1926000E1A22600E192433
:10142800D96E000E1A20DA6E2D50DF2612002BC05E
:1014380019F02CC01AF0000E1C6E0C0E1B6E5EEC20
:1014480010F0080E1926000E1A22600E1924D96E03
:10145800000E1A20DA6EDF50000AD8B447D6010A07
:10146800D8B46FD6030AD8A41200EFD62A6E000E9D
:10147800296E2A501F5CD8B0FDD020C019F021C0B9
:101488001AF0000E1C6E0C0E1B6E5EEC10F00A0EAD
:101498001926000E1A22600E1924D96E000E1A2081
:1014A800DA6EDF50226E236A221E231E224A232A66
:1014B8002A50246E256A225024262350252225BE30
:1014C80008D0255004E1C90E245CD8A002D0320E01
:1014D800B1D020C019F021C01AF0000E1C6E0C0EFD
:1014E8001B6E5EEC10F00A0E1926000E1A22600E12
:1014F8001924D96E000E1A20DA6EDF50226E236A84
:10150800221E231E224A232A2A50246E256A22508C
:1015180024262350252225BE08D0255004E1970E05
:10152800245CD8A002D0190E85D020C019F021C0A3
:101538001AF0000E1C6E0C0E1B6E5EEC10F00A0EFC
:101548001926000E1A22600E1924D96E000E1A20D0
:10155800DA6EDF50226E236A221E231E224A232AB5
:101568002A50246E256A225024262350252225BE7F
:1015780008D0255004E1650E245CD8A002D0140ED2
:1015880059D020C019F021C01AF0000E1C6E0C0EA4
:101598001B6E5EEC10F00A0E1926000E1A22600E61
:1015A8001924D96E000E1A20DA6EDF50226E236AD3
:1015B800221E231E224A232A2A50246E256A2250DC
:1015C80024262350252225BE08D0255004E14C0EA0
:1015D800245CD8A002D00A0E2DD020C019F021C05A
:1015E8001AF0000E1C6E0C0E1B6E5EEC10F00A0E4C
:1015F8001926000E1A22600E1924D96E000E1A2020
:10160800DA6EDF50226E236A221E231E224A232A04
:101618002A50246E256A225024262350252225BECE
:1016280008D0255004E1330E245CD8A002D0050E62
:1016380001D0010E296E2950226E236A1F50246E94
:10164800256A241E251E244A252A2A50266E276A22
:1016580024502626255027222250265C2750800A0F
:10166800286E2350800A2858D8B003D11F5000088C
:101678002A24FED020C019F021C01AF0000E1C6EDA
:101688000C0E1B6E5EEC10F00A0E1926000E1A22C4
:10169800600E1924D96E000E1A20DA6EDF50226E01
:1016A800236A221E231E224A232A2A50246E256AD0
:1016B800225024262350252225BE0AD0255004E195
:1016C800C90E245CD8A004D01F5000082A24B1D029
:1016D80020C019F021C01AF0000E1C6E0C0E1B6EF3
:1016E8005EEC10F00A0E1926000E1A22600E19245C
:1016F800D96E000E1A20DA6EDF50226E236A221E7F
:10170800231E224A232A2A50246E256A2250242680
:101718002350252225BE08D0255004E1970E245CCD
:10172800D8A002D0190E85D020C019F021C01AF017
:10173800000E1C6E0C0E1B6E5EEC10F00A0E1926C5
:10174800000E1A22600E1924D96E000E1A20DA6EC5
:10175800DF50226E236A221E231E224A232A2A5081
:10176800246E256A225024262350252225BE08D01F
:10177800255004E1650E245CD8A002D0140E59D07F
:1017880020C019F021C01AF0000E1C6E0C0E1B6E42
:101798005EEC10F00A0E1926000E1A22600E1924AB
:1017A800D96E000E1A20DA6EDF50226E236A221ECE
:1017B800231E224A232A2A50246E256A22502426D0
:1017C8002350252225BE08D0255004E14C0E245C68
:1017D800D8A002D00A0E2DD020C019F021C01AF0CE
:1017E800000E1C6E0C0E1B6E5EEC10F00A0E192615
:1017F800000E1A22600E1924D96E000E1A20DA6E15
:10180800DF50226E236A221E231E224A232A2A50D0
:10181800246E256A225024262350252225BE08D06E
:10182800255004E1330E245CD8A002D0050E01D067
:10183800010E296E2950226E236A2A50246E256AC9
:10184800241E251E244A252A1F50266E276A245046
:101858002626255027222250265C2750800A286EEB
:101868002350800A2858D8B004D02A5000081F24D2
:10187800296E295012002BC019F02CC01AF0000E46
:101888001C6E0C0E1B6E5EEC10F0050E1926000E79
:101898001A22600E1924D96E000E1A20DA6EDF5053
:1018A800D8A4B3D02BC019F02CC01AF0000E1C6EAF
:1018B8000C0E1B6E5EEC10F0600E1924D96E000E33
:1018C8001A20DA6E0001DFA802D0010E01D0000E46
:1018D8002D6E2BC019F02CC01AF0000E1C6E0C0EC9
:1018E8001B6E5EEC10F0600E1924D96E000E1A20E3
:1018F800DA6E0001DFA602D0010E01D0000E2D1A0B
:10190800D8B483D02BC019F02CC01AF0000E1C6E6E
:101918000C0E1B6E5EEC10F0600E1924D96E000ED2
:101928001A20DA6E2BC019F02CC01AF0000E1C6EAB
:101938000C0E1B6E5EEC10F0600E1924E16E000EAA
:101948001A20E26E0001DFB803D00001E79602D04A
:101958000001E7862BC019F02CC01AF0000E1C6E8F
:101968000C0E1B6E5EEC10F0600E1924D96E000E82
:101978001A20DA6E0001000EDFB6010E1F6E2BC0B2
:1019880019F02CC01AF0000E1C6E0C0E1B6E5EECCB
:1019980010F0030E1926000E1A22600E1924D96EB3
:1019A800000E1A20DA6EDF50CCEC0FF02BC019F0C5
:1019B8002CC01AF0000E1C6E0C0E1B6E5EEC10F0A4
:1019C800600E1924D96E000E1A20DA6E0001DFB6F7
:1019D80002D0010E01D0000E1F6E2BC019F02CC0D2
:1019E8001AF0000E1C6E0C0E1B6E5EEC10F0040E4E
:1019F8001926000E1A22600E1924D96E000E1A201C
:101A0800DA6EDF50CCEC0FF012002BC019F02CC0AE
:101A18001AF0000E1C6E0C0E1B6E5EEC10F0050E1C
:101A28001926000E1A22600E1924D96E000E1A20EB
:101A3800DA6EDF50D8B4120000D12BC019F02CC0D8
:101A48001AF0000E1C6E0C0E1B6E5EEC10F0050EEC
:101A58001926000E1A22600E1924D96E000E1A20BB
:101A6800DA6E000EDF6E12002BC019F02CC01AF0CF
:101A7800000E1C6E0C0E1B6E5EEC10F0050E192687
:101A8800000E1A22600E1924D96E000E1A20DA6E82
:101A98002BC019F02CC01AF0000E1C6E0C0E1B6E19
:101AA8005EEC10F00A0E1926000E1A22600E192498
:101AB800E16E000E1A20E26EDE50E65CD8B016D059
:101AC8002BC019F02CC01AF0000E1C6E0C0E1B6EE9
:101AD8005EEC10F0050E1926000E1A22600E19246D
:101AE800D96E000E1A20DA6EDF0612002BC019F02C
:101AF8002CC01AF0000E1C6E0C0E1B6E5EEC10F063
:101B0800050E1926000E1A22600E1924D96E000E31
:101B18001A20DA6E000EDF6E12002BC019F02CC0EE
:101B28001AF0000E1C6E0C0E1B6E5EEC10F0050E0B
:101B38001926000E1A22600E1924D96E000E1A20DA
:101B4800DA6E2BC019F02CC01AF0000E1C6E0C0EA9
:101B58001B6E5EEC10F00A0E1926000E1A22600E9B
:101B68001924E16E000E1A20E26EDE50E65CD8B051
:101B78004DD02BC019F02CC01AF0000E1C6E0C0EA4
:101B88001B6E5EEC10F00A0E1926000E1A22600E6B
:101B98001924D96E000E1A20DA6EDF502F6E2BC072
:101BA80019F02CC01AF0000E1C6E0C0E1B6E5EECA9
:101BB80010F0050E1926000E1A22600E1924D96E8F
:101BC800000E1A20DA6EDF50306E2FC01FF02BC0C7
:101BD80020F02CC021F030503AEC0AF02D6E2BC0CA
:101BE80019F02CC01AF0000E1C6E0C0E1B6E5EEC69
:101BF80010F0050E1926000E1A22600E1924D96E4F
:101C0800000E1A20DA6E2D50DF5E12002BC019F07C
:101C18002CC01AF0000E1C6E0C0E1B6E5EEC10F041
:101C2800050E1926000E1A22600E1924D96E000E10
:101C38001A20DA6E000EDF6E12004050000AD8B487
:101C4800FCD6010AD8B410D7030AD8A4120065D765
:101C5800D550F80B0309D56ED596D59AD58CD58E67
:101C6800000E246E000E236E245005E1040E235C42
:101C7800D8B0A3D001D0A1D023C019F024C01AF045
:101C8800000E1C6E0C0E1B6E5EEC10F0600E19241C
:101C9800D96E000E1A20DA6E0001DF9023C019F009
:101CA80024C01AF0000E1C6E0C0E1B6E5EEC10F0B9
:101CB800600E1924D96E000E1A20DA6E0001DF9426
:101CC80023C019F024C01AF0000E1C6E0C0E1B6EF7
:101CD8005EEC10F0600E1924D96E000E1A20DA6E30
:101CE8000001DF8223C019F024C01AF0000E1C6E18
:101CF8000C0E1B6E5EEC10F0600E1924D96E000EEF
:101D08001A20DA6E0001DF8623C019F024C01AF009
:101D1800000E1C6E0C0E1B6E5EEC10F0600E19248B
:101D2800D96E000E1A20DA6E0001DF8823C019F080
:101D380024C01AF0000E1C6E0C0E1B6E5EEC10F028
:101D4800050E1926000E1A22600E1924D96E000EEF
:101D58001A20DA6E000EDF6E23C019F024C01AF0C4
:101D6800000E1C6E0C0E1B6E5EEC10F0060E192693
:101D7800000E1A22600E1924D96E000E1A20DA6E8F
:101D8800000EDF6E23C019F024C01AF0000E1C6E7E
:101D98000C0E1B6E5EEC10F0010E1926000E1A22B6
:101DA800600E1924D96E000E1A20DA6E000EDF6E4E
:101DB800234A242A245001E159D7000E0001626FFA
:101DC800010E0001636F020E0001646F050E000131
:101DD8006E6F040E00016F6F030E0001706F060E28
:101DE80000017A6F070E00017B6F090E00017C6FFE
:101DF8000B0E0001866F0A0E0001876F080E0001A6
:101E0800886F000E226E000E216E225039E1040EFA
:101E1800215CD8B01200010E1F6E21C019F022C03B
:101E28001AF0000E1C6E0C0E1B6E5EEC10F0030E0A
:101E38001926000E1A22600E1924D96E000E1A20D7
:101E4800DA6EDF50CCEC0FF0000E1F6E21C019F0D7
:101E580022C01AF0000E1C6E0C0E1B6E5EEC10F009
:101E6800040E1926000E1A22600E1924D96E000ECF
:101E78001A20DA6EDF50CCEC0FF0214A222AC5D79F
:101E880012004150D8A413D031C019F032C01AF052
:101E9800000E1C6E0C0E1B6E5EEC10F0600E19240A
:101EA800D96E000E1A20DA6E0001DFA407D031C007
:101EB8002BF032C02CF03FEC0CF0120031C019F0BE
:101EC80032C01AF0000E1C6E0C0E1B6E5EEC10F089
:101ED800600E1924D96E000E1A20DA6E0001DFA8F0
:101EE80002D0010E01D0000E336E31C019F032C09D
:101EF8001AF0000E1C6E0C0E1B6E5EEC10F0600EDD
:101F08001924D96E000E1A20DA6E0001DFA602D05D
:101F1800010E01D0000E331AD8B407D031C02BF00F
:101F280032C02CF03FEC0CF0120031C019F032C076
:101F38001AF0000E1C6E0C0E1B6E5EEC10F0060EF6
:101F48001926000E1A22600E1924D96E000E1A20C6
:101F5800DA6E31C019F032C01AF0000E1C6E0C0E89
:101F68001B6E5EEC10F0050E1926000E1A22600E8C
:101F78001924E16E000E1A20E26EDE50E618D8B47D
:101F8800120031C02BF032C02CF088EC07F01200A0
:101F9800206E48D01FB002D08B9001D08B801200E9
:101FA8001FB002D08B9201D08B8212001FB002D0DA
:101FB8008B9401D08B8412001FB002D08B9601D075
:101FC8008B8612001FB002D08B9801D08B8812002C
:101FD8001FB002D08B9A01D08B8A12001FB002D09A
:101FE8008B9C01D08B8C12001FB002D08B9E01D02D
:101FF8008B8E12001FB002D08A9A01D08A8A1200F2
:102008001FB002D08A9E01D08A8E12001FB002D063
:10201800899801D0898812001FB002D0899A01D00E
:10202800898A12002050000AD8B4B4D7010AD8B45B
:10203800B7D7030AD8B4BAD7010AD8B4BDD7070AA4
:10204800D8B4C0D7010AD8B4C3D7030AD8B4C6D7FE
:10205800010AD8B4C9D70F0AD8B4CCD7010AD8B462
:10206800CFD7030AD8B4D2D7010AD8A41200D4D73C
:10207800500EF66E210EF76E000EF86E0900F5CFC1
:1020880042F00900F5CF43F00900F5CF44F000EE27
:1020980060F0300EEE6AE806FDE100EE39F0090E58
:1020A800EE6AE806FDE145904592000EF86E0001E3
:1020B80095EF10F019501B02F3CF1DF0F4CF1EF06E
:1020C80019501C02F3501E261A501B02F3501E26EC
:1020D8001DC019F01EC01AF0120001500302F3CF00
:1020E80005F0F4CF06F001500402F3500626025022
:1020F8000302F350062605C001F006C002F01200E4
:10210800F19E7888788CC78EC650F00B0609C66E8B
:10211800C580460EC86E9E969D86F28EF28CC68A43
:102128001200D388D38AD38CA1EC10F084EC10F081
:102138002CEC0EF032EC04F0FDD7000E926E500E2F
:0B214800936E000E946E1200960001D2
:020000040020DA
:08000000FFFFFFFFFFFFFFFF00
:020000040030CA
:0E00000000281F1EFF0881FF03C003E003401D
:00000001FF
